:020000040000FA
:100000000C9467010C9498010C9498010C9498013D
:100010000C9498010C9498010C9498010C949801FC
:100020000C9498010C9498010C9498010C949801EC
:100030000C9498010C9498010C9498010C949801DC
:100040000C9498010C9498010C9498010C949801CC
:100050000C9498010C9498010C9498010C942D0820
:100060000C9498010C9498010C9498010C949801AC
:100070000C9498010C9498010C9498010C9498019C
:100080000C9498010C9498010C9498010C9498018C
:100090000C9498010C9498010C9498010C9498017C
:1000A0000C9498010C9498010C9498010C9498016C
:1000B0000C9498010C9498010C9498010C9498015C
:1000C0000C9498010C9498010C9498010C9498014C
:1000D0000C9498010C9498010C9498010C9498013C
:1000E0000C9498010C94CD010C94C2010C94FD0168
:1000F0000C94F9010C94B8010C94DD010C94E1010D
:100100000C94EF010C94D3010C94CA010C94F801E7
:100110000C94EB010C94900D0C94D7010C94E50118
:100120000C94BE010C94F3010C94C6010000200055
:100130002300260029002C002F00320000010000BF
:1001400003010601090100002100240027002A0004
:100150002D003000330001010000040107010A01F5
:1001600000002200250028002B002E003100340062
:1001700002010000050108010B0105050505070541
:1001800008080808020202020A0A08080404040413
:10019000010101010101010103030303030303033F
:1001A000040707070C0C0C0C0C0C0C0C02020202CE
:1001B00006060606060606060B0B0B0B0B0B0B0BB7
:1001C0000102102020080810204010204080020169
:1001D000020108040201010204081020408080404E
:1001E000201008040201800402018040201008044D
:1001F00002010804020101020408102040800102EB
:1002000004081020408000000A0B02090C0D0E08A3
:1002100007030401000000000000000000000000CF
:1002200000000000000000000000000000000000CE
:10023000000012111000000000000000000000008B
:100240000000000000000000000000007E306D791A
:10025000335B5F707F7B771F4E3D4F470000000090
:10026000000000000000000000000000000022006C
:10027000000000204E780000040100007E306D79FF
:10028000335B5F707F7B00000000000000771F4E33
:100290003D4F475E373038000E00157E6773055BB3
:1002A0000F3E0000003B004E0078000802771F0D53
:1002B0003D6F475E171038003000151D6773055BF2
:1002C0000F1C00000000000000000000900D112431
:1002D0001FBECFEFD1E2DEBFCDBF00E00CBF12E00A
:1002E000A0E0B2E0EEEEF7E200E00BBF02C0079044
:1002F0000D92AA35B107D9F723E0AAE5B2E001C013
:100300001D92A633B207E1F711E0C7E6D1E000E0A5
:1003100006C021970109802FFE010E94F20EC63609
:10032000D10780E00807A9F70E9477080C94F5131D
:100330000C9400008150823108F05AC0E82FF0E0A0
:100340008827EA55FE4F8F4F0C94F20EC601CA0162
:10035000B801BE01C201F801CD01D301D701DD0111
:10036000E101E501EB01EF01F801F301F901FD0104
:10037000809180008F778093800008958091800025
:100380008F7DF9CF80918000877FF5CF84B58F77FF
:1003900084BD089584B58F7DFBCF8091B0008F77A9
:1003A0008093B00008958091B0008F7DF9CF809147
:1003B00090008F77809390000895809190008F7DBA
:1003C000F9CF80919000877FF5CF8091A0008F7743
:1003D0008093A00008958091A0008F7DF9CF809137
:1003E000A000877FF5CF809120018F778093200137
:1003F0000895809120018F7DF9CF80912001877F22
:10040000F5CF1F93CF93DF93282F30E0F901EA5FF8
:10041000FD4F8491F901E054FE4FD491F901E65863
:10042000FE4FC491CC23A9F0162F81110E949A018E
:10043000EC2FF0E0EE0FFF1FE05AFE4FA591B491B4
:100440008FB7F894EC91111108C0D095DE23DC939E
:100450008FBFDF91CF911F910895DE2BF8CFCF93FF
:10046000DF9390E0FC01E054FE4F249186589E4FAC
:10047000FC0184918823D1F090E0880F991FFC0142
:10048000EA5BFE4FA591B491FC01E05AFE4FC59185
:10049000D49161110EC09FB7F8948C91E22FE09532
:1004A0008E238C932881E223E8839FBFDF91CF9135
:1004B00008958FB7F894EC91E22BEC938FBFF6CFB1
:1004C00090917B00977F90937B008653806480930C
:1004D0007C0080917A00806480937A0080917A0019
:1004E00086FDFCCF8091780090917900089582304C
:1004F000910538F0880F991F880F991F059701976C
:10050000F1F708956F927F929F92BF92CF92DF9200
:10051000EF92FF921F93CF93DF937C01962E11E011
:10052000C62ED12C81ED682E87E0782E8091F402C2
:10053000811708F40DC1C12FD0E0123009F455C065
:1005400008F047C06091E0028091E402113009F4A4
:1005500049C0F701EC0FFD1F3197B080B7FE4FC0C7
:10056000B0FE06C06091E2028091EC020E9401029E
:10057000B1FE06C06091E2028091ED020E9401028C
:10058000B2FE06C06091E2028091EE020E9401027A
:10059000B3FE06C06091E2028091EF020E94010268
:1005A000B4FE06C06091E2028091F0020E94010256
:1005B000B5FE06C06091E2028091F1020E94010244
:1005C000B6FE54C06091E2028091F2020E940102E4
:1005D0004DC0133079F06091E0028091E702143051
:1005E00009F0B7CF0E940102B4CF6091E002809180
:1005F000E502F8CF6091E0028091E602F3CFEB2DA7
:10060000F0E0E45BFD4FB490B6FE06C06091E202FC
:100610008091EC020E940102B5FE06C06091E202E8
:100620008091ED020E940102B4FE06C06091E202D8
:100630008091EE020E940102B3FE06C06091E202C8
:100640008091EF020E940102B2FE06C06091E202B8
:100650008091F0020E940102B1FE06C06091E202A8
:100660008091F1020E940102B0FCACCF2197C6013B
:1006700002C095958795CA95E2F780FF08C01530AE
:1006800030F46091E2028091F3020E9401028091B5
:10069000F5029091F60201960E9477026091E302C2
:1006A0008091EC020E9401026091E3028091ED02D0
:1006B0000E9401026091E3028091EE020E94010219
:1006C0006091E3028091EF020E9401026091E302D7
:1006D0008091F0020E9401026091E3028091F10298
:1006E0000E9401026091E3028091F2020E940102E5
:1006F0006091E3028091F3020E9401021230F1F056
:1007000090F46091E1028091E4021130A1F08091B7
:10071000F5029091F6029301281B390BC9010E9442
:1007200077021F5F03CF133071F06091E102809177
:10073000E702143061F70E940102E9CF6091E10203
:100740008091E502F8CF6091E1028091E602F3CF5B
:100750008091E9028F3F29F49091E8029F3F09F4CC
:100760004EC094FE0AC06091E0020E9401026091B6
:10077000E2028091EB020E94010295FE0CC06091A2
:10078000E0028091E8020E9401026091E202809101
:10079000EA020E9401028091F5029091F602019610
:1007A0000E9477026091E1028091E9020E940102B9
:1007B0006091E3028091EB020E9401026091E102EC
:1007C0008091E8020E9401026091E3028091EA02B6
:1007D0000E9401022091F5023091F60281ED97E02E
:1007E000821B930BDF91CF911F91FF90EF90DF90D1
:1007F000CF90BF909F907F906F900C947702DF9185
:10080000CF911F91FF90EF90DF90CF90BF909F907E
:100810007F906F9008953FB7F8948091DB0290919C
:10082000DC02A091DD02B091DE0226B5A89B05C0D6
:100830002F3F19F00196A11DB11D3FBFBA2FA92F5F
:10084000982F8827BC01CD01620F711D811D911D5C
:1008500042E0660F771F881F991F4A95D1F70895C8
:100860000F931F93CF93DF93EC018B899C89813089
:100870009105D9F030F00297C1F000E010E0980146
:100880000AC00E940B04088519852A853B85060F3E
:10089000171F281F391F088319832A833B831A8A4D
:1008A000DF91CF911F910F9108952FB7F894809108
:1008B0002E0390912F03A0913003B09131032FBFED
:1008C0000C811D812E813F81080F191F2A1F3B1F9C
:1008D000E2CF0F931F93CF93DF93EC011C821D8215
:1008E0001E821F82188619861A861B861C861D8604
:1008F0001E861F86198A188A1A8A1E8E1D8E0091DE
:100900002C0310912D0381E090E00130110511F0CE
:1009100090E080E090932D0380932C0382E090E0A0
:100920009C8B8B8BCB01BA010E94B20D6D8B7E8BA1
:100930008F8B988FCE010E9430040130110581F019
:1009400080912A0390912B03892B79F4D09329036A
:10095000C0932803D0932B03C0932A0318A21F8EA1
:10096000DF91CF911F910F910895E0912803F091AD
:100970002903D0A3C78FD0932903C0932803EECFB8
:100980000C943004CF92DF92EF92FF920F931F935B
:10099000CF93DF93EC016C817D818E819F812FB796
:1009A000F894C0902E03D0902F03E0903003F09085
:1009B00031032FBF2B893C892115310539F02330B4
:1009C0003105F8F060E070E0CB0112C0C884D98432
:1009D000EA84FB840E940B04088119812A813B81EF
:1009E000C01AD10AE20AF30A6C0D7D1D8E1D9F1DEF
:1009F000DF91CF911F910F91FF90EF90DF90CF90FB
:100A000008956C0D7D1D8E1D9F1DC880D980EA80C4
:100A1000FB806C197D098E099F09EACFCF92DF9286
:100A2000EF92FF920F931F93CF93DF93EC01062F6A
:100A30008B899C898130910591F1C0F0029779F101
:100A4000002329F0112319F0CE010E9430048D8D6E
:100A50009E8D892B09F010E0812FDF91CF911F919E
:100A60000F91FF90EF90DF90CF900895CE010E94FC
:100A7000C2046B017C0120E034E244E759E46D8953
:100A80007E898F89988D0E94EF0D0E94C30E11E020
:100A9000C616D706E806F90698F610E0D1CFCE01C3
:100AA0000E94C2046B017C0120E030E04AE754E47C
:100AB000E6CFCF93DF939C01FC01EA5FFD4F849169
:100AC000F901E054FE4FD491F901E658FE4FC4916C
:100AD000CC2379F081110E949A01EC2FF0E0EE0F07
:100AE000FF1FE45DFE4FA591B491EC91ED2381E0F1
:100AF00009F480E0DF91CF91089560E00C942F021B
:100B0000CF93DF93C091D802D091D90287E30E949E
:100B10006002C81BD90BD7FF03C0D195C195D1097D
:100B200081E040915E0250915F024C175D070CF02E
:100B300080E0DF91CF91089588E30E94600221E078
:100B40004091640250916502841795070CF020E0F3
:100B5000822F089587E30E946002209166023091FF
:100B60006702281739075CF487E30E94600221E0DE
:100B70004091680250916902841795070CF020E0BB
:100B8000822F089586E30E94600220916A023091CC
:100B90006B02281739075CF486E30E94600221E0AB
:100BA00040916C0250916D02841795070CF020E083
:100BB000822F08950E94C205882329F00E94AA0569
:100BC00081110C949C0580E008950F931F93CF939F
:100BD000DF9300D01F921F92CDB7DEB79F938F9304
:100BE00086E092E09F938F938E010F5F1F4F1F93BC
:100BF0000F930E941F1160E0C8010E9482020F90B3
:100C00000F900F900F900F900F900F900F900F90EC
:100C10000F900F90DF91CF911F910F9108958091C8
:100C20007002909171020C94E5050F931F93CF937E
:100C3000DF93EC0188819981009759F02A813B81EB
:100C40002617370730F081E0DF91CF911F910F9188
:100C500008958B016F5F7F4F0E941F10009759F01E
:100C6000998388831B830A832C813D81232B59F729
:100C7000FC011082E8CF80E0E7CFCF93DF93EC0157
:100C800088819981009711F00E94960F198218822D
:100C90001D821C821B821A82DF91CF910895EF92F0
:100CA000FF920F931F93CF93DF93EC017B018A0197
:100CB000BA010E94150681110BC0CE010E943D06AB
:100CC000CE01DF91CF911F910F91FF90EF9008958A
:100CD0001D830C83B701888199810E940911F0CF8F
:100CE000FC01118210821382128215821482FB0190
:100CF00001900020E9F73197AF01461B570B0C9488
:100D00004F06FC0180819181009711F00C94960FA1
:100D10000895AF92BF92CF92DF92EF92FF920F931E
:100D20001F93CF93DF9300D000D01F921F92CDB7B7
:100D3000DEB78C01CDB6DEB6FC01848195810497C7
:100D40000CF04AC01A8219821C821B821E821D82EC
:100D500080E18F831886BE01695F7F4FFB010190A0
:100D60000020E9F73197AF01461B570BCE010196E2
:100D70000E944F06F801A080B180A114B10409F4CB
:100D80005DC0E480F580E114F104B9F08D819E81AD
:100D9000E80EF91EB701CE0101960E9415068823C0
:100DA00009F44CC029813A818D819E81B501820F61
:100DB000931F0E940911FE82ED8269817A8161157B
:100DC000710509F440C04D815E81C8010E944F0643
:100DD000CE0101960E948106F801E480F580C701EA
:100DE00001962DB73EB7281B390B0FB6F8943EBFBE
:100DF0000FBE2DBFEDB7FEB731965F01892B21F0F5
:100E0000E114F10421F5108260E0C5010E94820224
:100E10000FB6F894DEBE0FBECDBE28960FB6F8947E
:100E2000DEBF0FBECDBFDF91CF911F910F91FF901D
:100E3000EF90DF90CF90BF90AF900895CE010196D4
:100E40000E943D06BACFC8010E943D06C1CFF801FD
:100E500060817181A701C5010E941011F501EE0D9D
:100E6000FF1DD1CF1F93CF93DF9300D000D0CDB71C
:100E7000DEB7182F80915D02811107C083E792E0F1
:100E80000E94300481E080935D0280915C02111128
:100E9000CAC0811103C081E080935C0261E083E7F6
:100EA00092E00E940E05882349F080915A029091A9
:100EB0005B02019690935B0280935A0280915A02E2
:100EC00090915B02112391F0009709F08CC06FE1C3
:100ED00072E0CE0101960E947006CE0101960E943A
:100EE0008906CE0101960E9481063CC08F3F98077B
:100EF00059F70E94C20581110AC00E94AA058111FA
:100F000006C00E949C056BE072E0882311F30E94EA
:100F1000C20581110EC060E172E0CE0101960E940F
:100F20007006CE0101960E948906CE0101960E94AC
:100F300081060E94AA0581110EC065E172E0CE0112
:100F400001960E947006CE0101960E948906CE018C
:100F500001960E9481060E949C056AE172E0882346
:100F600009F4B7CF80915A0290915B0282309105CB
:100F700009F042C064E272E0CE0101960E94700660
:100F8000CE0101960E948906CE0101960E9481063B
:100F900080915A0290915B0284309105A9F569E233
:100FA00072E0CE0101960E947006CE0101960E9469
:100FB0008906CE0101960E94810680915A02909185
:100FC0005B02069731F4112339F110925B02109203
:100FD0005A0226960FB6F894DEBF0FBECDBFDF9142
:100FE000CF911F910895019709F0BCCF86E30E942D
:100FF00060020E94E505B6CF039751F687E30E9491
:1010000060020E94E505C4CF0597B9F688E30E9407
:1010100060020E94E505D1CF8FEF9FEF90935B02B6
:1010200080935A02D6CF882309F438CF10925C02FD
:1010300035CF1F93CF93DF93EC01162F0E94AD0E97
:10104000181739F0612FCE01DF91CF911F910C94C9
:10105000B50EDF91CF911F9108951F920F920FB699
:101060000F9211242F933F938F939F93AF93BF932E
:1010700080912E0390912F03A0913003B091310302
:101080003091DA0223E0230F2D3758F50196A11D88
:10109000B11D2093DA0280932E0390932F03A09327
:1010A0003003B09331038091DB029091DC02A09178
:1010B000DD02B091DE020196A11DB11D8093DB021D
:1010C0009093DC02A093DD02B093DE02BF91AF915A
:1010D0009F918F913F912F910F900FBE0F901F9076
:1010E000189526E8230F0296A11DB11DD2CFCF93EC
:1010F000DF9300D000D0CDB7DEB7789484B582609E
:1011000084BD84B5816084BD85B5826085BD85B5AB
:10111000816085BD80916E00816080936E00109229
:1011200081008091810082608093810080918100A4
:101130008160809381008091800081608093800035
:101140008091B10084608093B1008091B000816093
:101150008093B00080919100826080939100809193
:1011600091008160809391008091900081608093D4
:1011700090008091A10082608093A1008091A100E5
:1011800081608093A1008091A00081608093A00085
:1011900080912101826080932101809121018160F1
:1011A00080932101809120018160809320018091B2
:1011B0007A00846080937A0080917A0082608093C4
:1011C0007A0080917A00816080937A0080917A0021
:1011D000806880937A001092C10084E08093F402CA
:1011E00012E31093E402B3E3B093E502A4E3A09307
:1011F000E602F5E3F093E7028FEF8093E802809335
:10120000E902EAE2E093EC027BE27093ED026CE229
:101210006093EE025DE25093EF024EE24093F002E3
:101220003FE23093F10220E32093F20291E39093A6
:10123000F3028093EA028093EB021092DF02109295
:10124000E00281E08093E1028093E2021092E302E7
:101250001093F702B093F802A093F902F093FA0208
:10126000E093FB027093FC026093FD025093FE0238
:101270004093FF02309300032093010390930203F5
:1012800010E08091F402181798F4812F90E09C01EF
:1012900021523D4F79016091E102F901808D0E9458
:1012A000010261E0F701808D0E942F021F5FE9CFEC
:1012B0000FED12E077EEE72E72E0F72E6091E30279
:1012C000F801848D0E94010261E0F801848D0E9482
:1012D0002F020F5F1F4FE016F10681F78091E902A0
:1012E0008F3FA1F06091E1020E94010261E08091D4
:1012F000E9020E942F026091E3028091EB020E94BA
:10130000010261E08091EB020E942F028091E802CD
:101310008F3FA1F06091E1020E94010261E08091A3
:10132000E8020E942F026091E3028091EA020E948B
:10133000010261E08091EA020E942F0280ED97E0B5
:101340009093F6028093F50282E090E00E947D0582
:1013500083E090E00E947D0584E090E00E947D059E
:1013600087E090E00E947D0586E390E00E947D0585
:1013700087E390E00E947D0588E390E00E947D0570
:1013800061E085E00E942F0261E086E00E942F026A
:1013900061E086E10E942F0280E392E090936D026B
:1013A00080936C0280EE91E090936B0280936A02CE
:1013B00084E492E0909369028093680284EA91E069
:1013C000909367028093660280E092E09093D90246
:1013D0008093D80280E293E0909365028093640248
:1013E00083E090E090936302809362021092610226
:1013F0001092600285E090E090935F0280935E021D
:1014000080E090E0A0E4B0E48093CC029093CD0221
:10141000A093CE02B093CF0287EB92E00E94C0046B
:101420001092AB021092AC021092AD021092AE027A
:1014300086E992E00E94C00487EB92E00E943004AB
:1014400086E992E00E943004BB24B39450E0E52E7C
:1014500050E0F52E69E0C62ED12C82E090E00E948B
:101460005905882309F49BC082E090E00E94590549
:101470008B2590916E02891392C082E090E00E94C9
:10148000590580936E0200919402109195020F5FAE
:101490001F4F109395020093940283E792E00E94FD
:1014A00030040115110509F093C1809170029091EB
:1014B000710290935F0280935E020530110509F07E
:1014C000A6C18091700290917102909367028093FF
:1014D00066028091D8029091D90290937102809314
:1014E000700260916C0270916D0277FF02C06F5FB5
:1014F0007F4F7595679590E080E00E941908609194
:101500006A0270916B0277FF02C06F5F7F4F759523
:10151000679581E090E00E941908609168027091DF
:10152000690277FF02C06F5F7F4F7595679582E014
:1015300090E00E941908609166027091670277FF3F
:1015400002C06F5F7F4F7595679583E090E00E94C2
:1015500019086091D8027091D90277FF02C06F5FBD
:101560007F4F7595679584E090E00E94190860911F
:10157000640285E090E00E9419086091620286E0B2
:1015800090E00E9419086091600287E090E00E945C
:10159000190860915E0288E090E00E94190882E0DC
:1015A00090E00E945905811106C082E090E00E94FF
:1015B000590580936E0283E090E00E9459058823CC
:1015C000C1F083E090E00E9459058B2590916F0255
:1015D00089130FC083E090E00E94590580936F0249
:1015E00080917002909171020196909371028093A4
:1015F000700283E090E00E945905811106C083E0EB
:1016000090E00E94590580936F0284E090E00E9470
:1016100059058823C1F084E090E00E9459058B258C
:101620009091720289130FC084E090E00E945905E6
:101630008093720280917002909171020197909351
:1016400071028093700284E090E00E94590581113C
:1016500006C084E090E00E9459058093720287E002
:1016600090E00E945905882309F4F1C18091940209
:10167000909195026EE272E0009709F463C10197C0
:1016800061F460E083E792E00E940E0563E372E09C
:10169000882309F457C10E940F068091940290910B
:1016A0009502029751F460E083E792E00E940E05F4
:1016B000882309F454C10E940F06809194029091EE
:1016C0009502039751F460E083E792E00E940E05D3
:1016D000882309F453C10E940F06809194029091CF
:1016E0009502049751F460E083E792E00E940E05B2
:1016F000882309F452C10E940F06809194029091B0
:101700009502059751F460E083E792E00E940E0590
:10171000882309F451C10E940F0680919402909190
:101720009502069751F460E083E792E00E940E056F
:10173000882309F450C10E940F0680919402909171
:101740009502079751F460E083E792E00E940E054E
:10175000882309F44FC10E940F0680919402909152
:101760009502089751F460E083E792E00E940E052D
:10177000882309F44EC10E940F0680919402909133
:101780009502099751F460E083E792E00E940E050C
:10179000882309F44DC10E940F0680919402909114
:1017A00095020A9724F0109295021092940280916B
:1017B00094029091950297FF04C0D0929502C09236
:1017C0009402E114F10409F448CE0E94000045CED1
:1017D0000130110549F480916C0290916D02909353
:1017E00071028093700269CE0230110501F580917B
:1017F00070029091710290936D0280936C028091BF
:101800006A0290916B02909371028093700206308D
:10181000110501F580917002909171029093D902A7
:101820008093D802809164029091650256CE033075
:10183000110509F5809170029091710290936B02ED
:1018400080936A028091680290916902909371027C
:10185000809370020730110509F04AC08091700230
:10186000909171029093650280936402809162026C
:101870009091630232CE0430110509F01ECE8091A2
:101880007002909171029093690280936802809136
:101890006602909167029093710280937002093002
:1018A000110509F01ECE6091700270917102709363
:1018B00061026093600280915E0290915F0290935A
:1018C000710280937002072E000C880B990B0E9406
:1018D000B20D6093AB027093AC028093AD02909313
:1018E000AE0286E992E00E94C00486E992E027C039
:1018F00008301105A1F66091700270917102709329
:101900006302609362028091600290916102909301
:10191000710280937002072E000C880B990B0E94B5
:10192000B20D6093CC027093CD028093CE0290935F
:10193000CF0287EB92E00E94C00487EB92E00E9406
:101940003004CFCDCE0101960E947006CE010196E3
:101950000E948906CE0101960E9481069ECE67E311
:1019600072E0CE0101960E947006CE0101960E949F
:101970008906CE0101960E9481069FCE6BE372E03C
:10198000CE0101960E947006CE0101960E94890642
:10199000CE0101960E948106A0CE6FE372E0CE01D7
:1019A00001960E947006CE0101960E948906CE0122
:1019B00001960E948106A1CE63E472E0CE010196F9
:1019C0000E947006CE0101960E948906CE01019602
:1019D0000E948106A2CE68E472E0CE0101960E94C8
:1019E0007006CE0101960E948906CE0101960E94E2
:1019F0008106A3CE6CE472E0CE0101960E947006CF
:101A0000CE0101960E948906CE0101960E948106B0
:101A1000A4CE60E572E0CE0101960E947006CE0170
:101A200001960E948906CE0101960E948106A5CEEC
:101A300065E572E0CE0101960E947006CE01019626
:101A40000E948906CE0101960E948106A6CE87E3F8
:101A50000E9460020091D8021091D902801791076C
:101A60006CF40E948005882349F00E94C2058823F7
:101A700029F00E949C0561E0811101C060E085E0D1
:101A80000E94010287E30E9460020817190794F080
:101A900060E086E00E9401020E94DA058823C1F01E
:101AA00087E090E00E945905811118C081E00E94F2
:101AB000320714C00E948005882351F30E94C2059A
:101AC000882331F30E949C05882311F361E0E1CF64
:101AD00087E090E00E945905882349F30E94DA05C7
:101AE00060E0882379F087EB92E00E940E0588235E
:101AF00021F061E086E10E94010286E992E00E9405
:101B000030045FCE86E992E00E940E05882309F436
:101B100058CE60E086E10E94010287EB92E0EFCFB1
:101B20001092270341E050E060E070E083E792E02C
:101B30000E9469044091620250916302052E000CDC
:101B4000660B770B87EB92E00E946904409160027C
:101B500050916102052E000C660B770B86E992E02E
:101B60000C946904E89409C097FB3EF49095809525
:101B7000709561957F4F8F4F9F4F9923A9F0F92F53
:101B800096E9BB279395F695879577956795B795D1
:101B9000F111F8CFFAF4BB0F11F460FF1BC06F5FB7
:101BA0007F4F8F4F9F4F16C0882311F096E911C0C9
:101BB000772321F09EE8872F762F05C0662371F0EA
:101BC00096E8862F70E060E02AF09A95660F771FFE
:101BD000881FDAF7880F9695879597F908950E94E0
:101BE000020E0C94730E0E94650E38F00E946C0E6B
:101BF00020F0952311F00C945C0E0C94620E1124CD
:101C00000C94A70E0E94840E70F3959FC1F3950F5C
:101C100050E0551F629FF001729FBB27F00DB11D70
:101C2000639FAA27F00DB11DAA1F649F6627B00D00
:101C3000A11D661F829F2227B00DA11D621F739FE9
:101C4000B00DA11D621F839FA00D611D221F749FF7
:101C50003327A00D611D231F849F600D211D822F3E
:101C6000762F6A2F11249F5750409AF0F1F0882365
:101C70004AF0EE0FFF1FBB1F661F771F881F915092
:101C80005040A9F79E3F510580F00C945C0E0C94D7
:101C9000A70E5F3FE4F3983ED4F38695779567955A
:101CA000B795F795E7959F5FC1F7FE2B880F911DBC
:101CB0009695879597F9089597F99F6780E870E062
:101CC00060E008959FEF80EC089500240A941616B2
:101CD000170618060906089500240A94121613061A
:101CE000140605060895092E0394000C11F48823A8
:101CF00052F0BB0F40F4BF2B11F460FF04C06F5FC4
:101D00007F4F8F4F9F4F089557FD9058440F551F99
:101D100059F05F3F71F04795880F97FB991F61F06D
:101D20009F3F79F087950895121613061406551FE4
:101D3000F2CF4695F1DF08C0161617061806991F50
:101D4000F1CF86957105610508940895E894BB2745
:101D500066277727CB0197F90895F999FECF92BDB1
:101D600081BDF89A992780B50895262FF999FECF5D
:101D70001FBA92BD81BD20BD0FB6F894FA9AF99AA8
:101D80000FBE019608950E948C0E88F09F5798F020
:101D9000B92F9927B751B0F0E1F0660F771F881F70
:101DA000991F1AF0BA95C9F714C0B13091F00E948A
:101DB000A60EB1E008950C94A60E672F782F882701
:101DC000B85F39F0B93FCCF3869577956795B395B1
:101DD000D9F73EF490958095709561957F4F8F4F20
:101DE0009F4F0895EE0FFF1F881F8BBF0790F6913E
:101DF000E02D19940F931F93CF93DF9382309105B9
:101E000010F482E090E0E0913403F091350330E08B
:101E100020E0B0E0A0E0309799F42115310509F4F5
:101E20004AC0281B390B24303105D8F58A819B81A3
:101E30006115710589F1FB0193838283FE0111C055
:101E4000408151810281138148175907E0F04817FA
:101E5000590799F4109761F012960C931297139604
:101E60001C933296CF01DF91CF911F910F9108956E
:101E70000093340310933503F4CF2115310551F04D
:101E80004217530738F0A901DB019A01BD01DF01B8
:101E9000F801C1CFEF01F9CF90933503809334035C
:101EA000CDCFFE01E20FF31F8193919322503109B0
:101EB00039832883D7CF2091320330913303232BEA
:101EC00041F42091020230910302309333032093B6
:101ED000320320910002309101022115310541F4B5
:101EE0002DB73EB74091040250910502241B350BDB
:101EF000E0913203F0913303E217F307A0F42E1BB5
:101F00003F0B2817390778F0AC014E5F5F4F24175D
:101F1000350748F04E0F5F1F509333034093320351
:101F2000819391939FCFF0E0E0E09CCFCF93DF933C
:101F30000097E9F0FC01329713821282A0913403DA
:101F4000B0913503ED0130E020E01097A1F420813D
:101F50003181820F931F2091320330913303281770
:101F6000390709F061C0F0933303E0933203DF9146
:101F7000CF910895EA01CE17DF07E8F54A815B812A
:101F80009E0141155105B1F7E901FB83EA834991AF
:101F90005991C40FD51FEC17FD0761F48081918121
:101FA0000296840F951FE90199838883828193812A
:101FB0009B838A83F0E0E0E012968D919C911397C9
:101FC0000097B9F52D913C911197CD010296820FA2
:101FD000931F20913203309133032817390739F6C4
:101FE000309751F51092350310923403B0933303B8
:101FF000A0933203BCCFD383C28340815181840F2D
:10200000951FC817D90761F44E5F5F4F888199818A
:10201000480F591F518340838A819B819383828318
:102020002115310509F0B0CFF0933503E093340367
:102030009ECFFD01DC01C0CF13821282D7CF4F9219
:102040005F926F927F928F929F92AF92BF92CF9248
:10205000DF92EF92FF920F931F93CF93DF938C0148
:10206000009799F4CB01DF91CF911F910F91FF90D1
:10207000EF90DF90CF90BF90AF909F908F907F9028
:102080006F905F904F900C94FA0EFC01E60FF71FD3
:102090009C0122503109E217F30708F4AEC0D901C0
:1020A000CD91DC911197C617D70720F1C530D10526
:1020B00078F0CE0104978617970750F0C61BD70B10
:1020C0002297C193D1936D937C93CF010E94960F79
:1020D000C801DF91CF911F910F91FF90EF90DF909A
:1020E000CF90BF90AF909F908F907F906F905F90B8
:1020F0004F9008955B01AC1ABD0A4C018C0E9D1ED9
:10210000A0913403B0913503512C412CF12CE12CDA
:10211000109731F58091320390913303881599051A
:1021200009F05CC04616570608F058C080910002BE
:1021300090910102009741F48DB79EB7409104023F
:1021400050910502841B950BE817F90708F055C05C
:10215000F0933303E0933203F90171836083B8CFC6
:102160008D919C91119712966C90129713967C907A
:102170001397A815B90559F56C0142E0C40ED11C9E
:10218000CA14DB0420F1AC014A195B09DA0112968A
:10219000159780F06282738251834083D9016D93D9
:1021A0007C93E114F10471F0D7011396FC93EE9344
:1021B00012978ECF22968C0F9D1FF90191838083F9
:1021C000F301EFCFF0933503E093340381CF48164A
:1021D000590608F42C017D01D3019ACFCB010E944E
:1021E000FA0E7C01009749F0AE01B8010E9400117F
:1021F000C8010E94960F87016BCF10E000E068CF06
:10220000FB01DC0102C001900D9241505040D8F713
:102210000895FB01DC0101900D920020E1F7089583
:10222000FB01DC014150504048F001900D9200202C
:10223000C9F701C01D9241505040E0F708950F9337
:102240001F93CF93DF93CDB7DEB72E970FB6F894D9
:10225000DEBF0FBECDBF0E891F8986E08C831A8337
:1022600009838FEF9FE79E838D83AE01465E5F4FAC
:10227000688D798DCE0101960E944F112F8138858E
:10228000020F131FF80110822E960FB6F894DEBFCE
:102290000FBECDBFDF91CF911F910F9108952F9267
:1022A0003F924F925F926F927F928F929F92AF92E6
:1022B000BF92CF92DF92EF92FF920F931F93CF9333
:1022C000DF9300D000D000D01F921F92CDB7DEB7B1
:1022D0007C013B018A01FC0117821682838181FF08
:1022E000DDC1CE0101965C01F7019381F30193FDFD
:1022F000859193FF81913F01882309F453C1853271
:1023000039F493FD859193FF81913F01853229F442
:10231000B70190E00E946713E7CF912C212C312C5C
:10232000FFE1F31538F08B3211F190F4803209F1AE
:10233000833229F137FC3CC020ED280F2A3050F5BC
:1023400036FE20C08AE0989E200D1124922E06C0F1
:102350008D3291F0803371F7689430F8F30193FD7A
:10236000859193FF81913F018111DACF21C068945B
:1023700031F8689432F8F2CF689433F8EFCF68946C
:1023800034F8ECCFEAE02E9E200D1124222E689422
:1023900035F8E4CF8E3229F436FC04C1689436F85F
:1023A000DDCF8C3619F4689437F8D8CF8836B1F27F
:1023B000982F9F7D95549330E0F08336A1F18337B9
:1023C000C1F1833509F063C02801F2E04F0E511CC2
:1023D000F801C080D180692D70E036FC02C06FEF3B
:1023E0007FEFC6010E9451134C01689437F88201B7
:1023F0000AC00C5F1F4FFFE3F98388248394912C5C
:102400006501E89437F833FE2DC0522C81149104F5
:1024100071F5552009F468CFB70180E290E00E9481
:1024200067135A94F6CFF801808189830E5F1F4F9E
:10243000E4CF2801F2E04F0E511CF801C080D1809A
:10244000692D70E036FC02C06FEF7FEFC6010E947D
:102450005C134C018201D5CFB70180E290E00E946D
:1024600067132A942814190409F0B0F7CECFF601A7
:1024700037FC859137FE81916F01B70190E00E9492
:10248000671351105A94F1E08F1A9108BFCF843628
:1024900019F0893609F077C0F80137FE6BC060810A
:1024A0007181828193810C5F1F4FF32DFF763F2E48
:1024B00097FF09C090958095709561957F4F8F4FDC
:1024C0009F4F689437F82AE030E0A5010E949713E7
:1024D000C82ECA188C2C432C36FE0CC0E89440F849
:1024E000C91440F434FE05C032FC03C0F32DFE7E57
:1024F0004F2E892C44FEAAC0FE01EC0DF11D8081F7
:10250000803309F09CC0242D297E422E842D8870B2
:10251000582E43FCAAC040FEA4C09C2C821418F480
:102520002C0C922C981844FEA6C0B70180E390E0D2
:102530000E94671342FE09C088E790E041FE02C096
:1025400088E590E0B7010E946713C91408F49FC0A2
:10255000CA94D12C9FEFC91AD90ACA0CDB1CF60108
:1025600082916F01B70190E00E946713AC14BD0423
:10257000B1F74FCF60817181072E000C880B990B4A
:102580000E5F1F4F92CFD32CE894D4F82AE030E0AE
:102590008537E1F1232D297FD22E8F36A9F1F0F472
:1025A000883551F1F701868197812B960FB6F89403
:1025B000DEBF0FBECDBFDF91CF911F910F91FF9076
:1025C000EF90DF90CF90BF90AF909F908F907F90D3
:1025D0006F905F904F903F902F900895803749F013
:1025E000883701F7D4FE02C06894D2F820E130E0C9
:1025F0000DC06894D4F8F6CF34FE03C0822F8660F5
:10260000D82E20E132E002C028E030E0F801D7FE09
:102610000FC060817181828193810C5F1F4FA50182
:102620000E949713C82ECA183D2CE89437F852CF51
:102630006081718190E080E00E5F1F4FF0CF42FC1F
:1026400002C0839463CF8394839460CF842D867873
:1026500009F45CCFF6CFB70180E290E00E946713E7
:1026600083948214C0F3512C5ECF522C58188214DC
:1026700008F459CFF8CF842D867809F466CF8BE221
:1026800041FE80E247FC8DE2B70190E05CCFB701EC
:1026900080E390E00E9467139A9457CF8FEF9FEFEB
:1026A00084CFFC010590615070400110D8F78095EF
:1026B00090958E0F9F1F0895FC016150704001900E
:1026C0000110D8F7809590958E0F9F1F08950F9356
:1026D0001F93CF93DF93182F092FEB018B8181FD7F
:1026E00009C01FEF0FEF812F902FDF91CF911F9126
:1026F0000F91089582FF14C02E813F818C819D81AE
:10270000281739073CF4E881F981CF0101969983B4
:10271000888310838E819F8101969F838E83E3CF70
:10272000E885F985812F1995892BA1F3DACFFA0174
:10273000AA27283051F1203181F1E8946F936E7F00
:102740006E5F7F4F8F4F9F4FAF4FB1E03ED0B4E0F1
:102750003CD0670F781F891F9A1FA11D680F791F32
:102760008A1F911DA11D6A0F711D811D911DA11D43
:1027700020D009F468943F912AE0269F1124301953
:10278000305D3193DEF6CF010895462F4770405DEE
:102790004193B3E00FD0C9F7F6CF462F4F70405D9D
:1027A0004A3318F0495D31FD4052419302D0A9F7F8
:1027B000EACFB4E0A6959795879577956795BA95F2
:1027C000C9F700976105710508959B01AC010A2EB8
:1027D00006945795479537952795BA95C9F7620F8F
:1027E000731F841F951FA01D0895F894FFCF00004C
:1027F0003603800025303464004572414C00457238
:10280000496E0045724F740045724F4C00496E5539
:102810004C004F50554C004C6F4164005345545090
:102820000049487500494C75004F4875004F4C757C
:102830000053455475004F754C00744F6E00744F33
:082840004646006449464600CB
:020000040003F7
:10E000000D9489F10D94B2F10D94B2F10D94B2F129
:10E010000D94B2F10D94B2F10D94B2F10D94B2F1F0
:10E020000D94B2F10D94B2F10D94B2F10D94B2F1E0
:10E030000D94B2F10D94B2F10D94B2F10D94B2F1D0
:10E040000D94B2F10D94B2F10D94B2F10D94B2F1C0
:10E050000D94B2F10D94B2F10D94B2F10D94B2F1B0
:10E060000D94B2F10D94B2F10D94B2F10D94B2F1A0
:10E070000D94B2F10D94B2F10D94B2F10D94B2F190
:10E080000D94B2F10D94B2F10D94B2F10D94B2F180
:10E090000D94B2F10D94B2F10D94B2F10D94B2F170
:10E0A0000D94B2F10D94B2F10D94B2F10D94B2F160
:10E0B0000D94B2F10D94B2F10D94B2F10D94B2F150
:10E0C0000D94B2F10D94B2F10D94B2F10D94B2F140
:10E0D0000D94B2F10D94B2F10D94B2F10D94B2F130
:10E0E0000D94B2F141546D656761323536300041AF
:10E0F000726475696E6F206578706C6F72657220DE
:10E1000073746B3530305632206279204D4C530099
:10E11000426F6F746C6F616465723E004875683F52
:10E1200000436F6D70696C6564206F6E203D200048
:10E130004350552054797065202020203D20005FF9
:10E140005F4156525F415243485F5F3D2000415658
:10E1500052204C696243205665723D20004743437C
:10E160002056657273696F6E203D20004350552024
:10E1700049442020202020203D20004C6F7720663D
:10E18000757365202020203D20004869676820665F
:10E190007573652020203D200045787420667573D6
:10E1A00065202020203D20004C6F636B2066757336
:10E1B000652020203D20004D617220203720323024
:10E1C000313300312E362E3800342E332E350056A2
:10E1D00023202020414444522020206F7020636F70
:10E1E00064652020202020696E73747275637469E1
:10E1F0006F6E2061646472202020496E74657272B3
:10E20000757074006E6F20766563746F7200726A49
:10E210006D702020006A6D70200057686174207056
:10E220006F72743A00506F7274206E6F7420737541
:10E2300070706F72746564004D7573742062652030
:10E2400061206C6574746572002000577269747483
:10E25000696E672045450052656164696E672045B7
:10E26000450045452065727220636E743D00504F35
:10E27000525400303D5A65726F2061646472003FF1
:10E280003D43505520737461747300403D454550C3
:10E29000524F4D207465737400423D426C696E6B41
:10E2A000204C454400453D44756D70204545505215
:10E2B0004F4D00463D44756D7020464C415348001B
:10E2C000483D48656C70004C3D4C69737420492F83
:10E2D0004F20506F72747300513D51756974005234
:10E2E0003D44756D702052414D00563D73686F7707
:10E2F00020696E7465727275707420566563746FF0
:10E30000727300593D506F727420626C696E6B00BD
:10E310002A0011241FBECFEFD1E2DEBFCDBF01E046
:10E320000CBF12E0A0E0B2E0EEE1FDEF03E00BBFB6
:10E3300002C007900D92A030B107D9F712E0A0E01B
:10E34000B2E001C01D92AE30B107E1F70F9460F367
:10E350000D948DFE01E20EBF0FEF0DBF11241FBE05
:10E360000D9460F30D9400F020E030E040ED57E0B4
:10E3700005C0FA013197F1F72F5F3F4F2817390792
:10E38000C0F308959C01260F311DC901A0E0B0E043
:10E390002F5F3F4FABBFFC018791882361F08093D3
:10E3A000C6008091C00086FFFCCF8091C0008064D1
:10E3B0008093C000EACF08958DE08093C6008091DD
:10E3C000C00086FFFCCF8091C00080648093C000B5
:10E3D0008AE08093C6008091C00086FFFCCF8091C8
:10E3E000C00080648093C00008950F94C2F10F9420
:10E3F000DCF10895FC019081992359F09093C600B7
:10E400008091C00086FFFCCF8091C0008064809323
:10E41000C0003196992379F70895282F982F929567
:10E420009F70892F805D8A3308F0895F8093C600D2
:10E430008091C00086FFFCCF8091C00080648093F3
:10E44000C000822F8F70982F905D9A3308F0995FEB
:10E450009093C6008091C00086FFFCCF8091C000E1
:10E4600080648093C00008959C01FB01853691056E
:10E470001CF46330710594F0C90164E670E00F94F8
:10E480002EFE605D7F4F6093C6008091C00086FFC6
:10E49000FCCF8091C00080648093C0002B30310598
:10E4A00014F43297B4F0C90164E670E00F942EFEC4
:10E4B0006AE070E00F942EFE605D7F4F6093C600AF
:10E4C0008091C00086FFFCCF8091C0008064809363
:10E4D000C000C9016AE070E00F942EFEC0968093E0
:10E4E000C6008091C00086FFFCCF8091C000806490
:10E4F0008093C00008951F93182F8EE692EE60E07F
:10E500000F94C2F11093C6008091C00086FFFCCF2B
:10E510008091C00080648093C0000F94DCF11F9153
:10E5200008952F923F924F925F926F927F928F92B7
:10E530009F92AF92BF92CF92DF92EF92FF920F9392
:10E540001F93DF93CF93CDB7DEB762970FB6F894E2
:10E55000DEBF0FBECDBF382E622ECA01DB015C01CB
:10E560006D01772420E2222E2E010894411C511CBB
:10E570008BC081E0A81680E0B80681E0C80680E084
:10E58000D80628F0C601AA27BB270F940DF2BB2797
:10E59000AD2D9C2D8B2D0F940DF28A2D0F940DF225
:10E5A0002092C6008091C00086FFFCCF8091C00001
:10E5B00080648093C0009DE29093C6008091C0006B
:10E5C00086FFFCCF8091C00080648093C0002092C1
:10E5D000C6008091C00086FFFCCF8091C00080649F
:10E5E0008093C00019828601750188249924A1E0D6
:10E5F0003A1651F03A1620F0B2E03B1661F409C029
:10E600000BBFF701779007C0C7010F9477FE782EF4
:10E6100002C0F7017080872D0F940DF22092C60082
:10E620008091C00086FFFCCF8091C0008064809301
:10E63000C000872D8052F401EF70F0708F3520F408
:10E64000E40DF51D708204C0E40DF51D8EE280839B
:10E650000894E11CF11C011D111D0894811C911CE2
:10E6600090E18916910409F0C2CF80E190E0A0E02A
:10E67000B0E0A80EB91ECA1EDB1E198AC2010F9493
:10E68000FAF10F94DCF16A94662009F072CF629679
:10E690000FB6F894DEBF0FBECDBFCF91DF911F91B3
:10E6A0000F91FF90EF90DF90CF90BF90AF909F9031
:10E6B0008F907F906F905F904F903F902F90089534
:10E6C0002F923F924F925F926F927F928F929F9282
:10E6D000AF92BF92CF92DF92EF92FF920F931F9370
:10E6E000DF93CF93CDB7DEB7CD53D1400FB6F894BB
:10E6F000DEBF0FBECDBF01E20EBF0FEF0DBF94B75F
:10E70000F894A89514BE80916000886180936000A1
:10E7100010926000789493FF05C0E0910002F091A0
:10E7200001021995279A2F9A8091C00082608093E8
:10E73000C00080E18093C40088E18093C1000000A4
:10E74000EE24FF24870144E0A42EB12CCC24DD2448
:10E7500024C0C5010197F1F70894E11CF11C011DCB
:10E76000111D21E2E2162EE4F20620E0020720E06D
:10E77000120718F031E0C32ED12CC801B70127ECE5
:10E780003BE140E050E00F9441FE611571058105C9
:10E79000910519F485B1805885B98091C00087FD35
:10E7A00003C0C114D104A9F2A6014F5F5F4FC25E3E
:10E7B000DE4F59834883CE51D140C25EDE4F8881FF
:10E7C0009981CE51D140019711F00D9410FEC05D9A
:10E7D000DE4F19821882C053D14060E0C15DDE4F28
:10E7E0001882CF52D14088249924C35DDE4F19820C
:10E7F0001882CD52D140C05EDE4F188219821A8233
:10E800001B82C052D140CE5CDE4F188219821A8220
:10E810001B82C253D140EE24FF2487010BBFF701B6
:10E8200007911691C45CDE4F19830883CC53D14005
:10E830000D940BFEC25EDE4F28813981CE51D1404E
:10E840002130310509F52091C600C25EDE4F1982E4
:10E850001882CE51D14022C02F5F3F4F4F4F5F4FA4
:10E86000213082E138078AE7480780E0580780F0C6
:10E87000C45CDE4FE881F981CC53D140EF5FFF4F9C
:10E8800019F0EE27FF27099420E030E040E050E047
:10E890008091C00087FFE0CF2091C600C35DDE4FAE
:10E8A00048815981CD52D1404F5F5F4FC35DDE4FEC
:10E8B00059834883CD52D140213209F063C64A3092
:10E8C000510508F05FC60894811C911C53E0851621
:10E8D000910409F059C600E010E018C081E280936D
:10E8E000C6008091C00086FFFCCF8091C00080648C
:10E8F0008093C0002F5F3F4F2931310579F70F9486
:10E90000DCF10F5F1F4F0530110519F020E030E0FA
:10E91000E5CF10920A0210920B0210920C02109294
:10E920000D02109206021092070210920802109235
:10E930000902109202021092030210920402109235
:10E9400005028FEE90EE60E00F94F5F180E191EE1C
:10E9500060E00F94C2F18091C00087FFFCCF9091DE
:10E96000C600903608F09F759032B8F09093C600BC
:10E970008091C00086FFFCCF8091C00080648093AE
:10E98000C000A0E2A093C6008091C00086FFFCCF2B
:10E990008091C00080648093C000983409F4D7C18E
:10E9A0009934B8F4923409F459C1933458F490333B
:10E9B00019F1903308F4E3C59F33A1F1903409F0C5
:10E9C000DEC5BDC0953409F470C1963409F0D7C5D1
:10E9D00098C1923509F42BC2933538F49C3409F46C
:10E9E000F5C1913509F0CBC518C2963509F445C279
:10E9F000993509F0C4C567C483E792EE62E00F94CD
:10EA0000F5F110920602109207021092080210927D
:10EA1000090210920A0210920B0210920C0210923C
:10EA20000D0213C18FE792EE62E00F94F5F18FEEC5
:10EA300090EE60E00F94F5F181E291EE60E00F94CA
:10EA4000C2F187EB91EE60E00F94F5F180E391EE77
:10EA500060E00F94C2F184EE90EE60E00F94F5F167
:10EA60008FE391EE60E00F94C2F186E090E061E008
:10EA700070E00F9434F20F94DCF18DE591EE60E0DC
:10EA80000F94C2F189EC91EE60E00F94F5F18EE401
:10EA900091EE60E00F94C2F183EC91EE60E00F9490
:10EAA000F5F18CE691EE60E00F94C2F18EE10F94E7
:10EAB0000DF288E90F940DF281E00F940DF20F949E
:10EAC000DCF18BE791EE60E00F94C2F119E0E0E039
:10EAD000F0E010935700E4918E2F0F940DF20F94F5
:10EAE000DCF18AE891EE60E00F94C2F1E3E0F0E03F
:10EAF00010935700E4918E2F0F940DF20F94DCF1D8
:10EB000089E991EE60E00F94C2F1E2E0F0E0109349
:10EB10005700E4918E2F0F940DF20F94DCF188EAE8
:10EB200091EE60E00F94C2F1E1E0F0E01093570045
:10EB30001491812F0F940DF20F94DCF107CF8BE825
:10EB400092EE62E00F94F5F18BE492EE60E00F94A8
:10EB5000F5F10F94DCF100E010E019C0C8016F2D51
:10EB60000F947FFEFF2031F489E492EE60E00F9471
:10EB7000C2F10BC0F092C6008091C00086FFFCCFAE
:10EB80008091C00080648093C0000F5F1F4FC80158
:10EB900081519F41A0E0B0E0ABBFFC01F790BAE229
:10EBA000FB1621F0E2E000301E07C1F60F94DCF105
:10EBB0000F94DCF187E592EE60E00F94F5F10F948D
:10EBC000DCF1CC24DD2400E010E01EC0C8010F946D
:10EBD00077FEF82E882331F489E492EE60E00F94FA
:10EBE000C2F10BC08093C6008091C00086FFFCCFAD
:10EBF0008091C00080648093C000FE1419F00894D6
:10EC0000C11CD11C0F5F1F4FC80181519F41A0E063
:10EC1000B0E0ABBFFC01E790FAE2EF1621F022E092
:10EC20000030120799F60F94DCF10F94DCF182E6C4
:10EC300092EE60E00F94C2F1C60161E070E00F94C3
:10EC400034F20F94DCF10F94DCF110920202109276
:10EC50000302109204021092050278CE89E992EE26
:10EC600062E00F94F5F1279A2F9A16C02F9880E052
:10EC700090E0E0EDF7E03197F1F7019684369105E9
:10EC8000C1F72F9A80E090E0E0EDF7E03197F1F7DF
:10EC9000019684369105C1F78091C00087FFE6CFC9
:10ECA0008091C00087FFFCCF64C485EA92EE62E0E9
:10ECB0000F94F5F140910202509103026091040219
:10ECC0007091050281E020E10F9491F2809102029F
:10ECD00090910302A0910402B091050280509F4FD1
:10ECE000AF4FBF4F8093020290930302A0930402A0
:10ECF000B093050280509041A040B04008F426CE69
:10ED0000A4CF83EB92EE62E00F94F5F140910602FE
:10ED100050910702609108027091090280E020E1A1
:10ED20000F9491F28091060290910702A09108023F
:10ED3000B091090280509F4FAF4FBF4F80930602A2
:10ED400090930702A0930802B0930902FFCD80ECD4
:10ED500092EE62E00F94F5F183E792EE60E00F949B
:10ED6000F5F18FE792EE60E00F94F5F18BE892EE0B
:10ED700060E00F94F5F189E992EE60E00F94F5F10F
:10ED800085EA92EE60E00F94F5F183EB92EE60E09D
:10ED90000F94F5F180EC92EE60E00F94F5F187ECC2
:10EDA00092EE60E00F94F5F188ED92EE60E00F9442
:10EDB000F5F18FED92EE60E00F94F5F18AEE92EEB0
:10EDC00060E00F94F5F183E093EEBDCD87EC92EE19
:10EDD00062E00F94F5F181E40F947BF282E40F94EA
:10EDE0007BF283E40F947BF284E40F947BF285E45E
:10EDF0000F947BF286E40F947BF287E40F947BF20E
:10EE000088E40F947BF28AE40F947BF28BE40F94F6
:10EE10007BF28CE40F947BF299CD88ED92EE62E068
:10EE20000F94F5F1772473948824992409C48FED05
:10EE300092EE62E00F94F5F140910A0250910B02BC
:10EE400060910C0270910D0282E020E10F9491F22A
:10EE500080910A0290910B02A0910C02B0910D02D8
:10EE600080509F4FAF4FBF4F80930A0290930B0289
:10EE7000A0930C02B0930D0269CD8AEE92EE62E08F
:10EE80000F94F5F184EE90EE60E00F94F5F18FECC5
:10EE900091EE60E00F94F5F1662477244301CC5D98
:10EEA000DE4F19821882C452D140D401C301B695F5
:10EEB000A79597958795CA5DDE4F88839983AA8326
:10EEC000BB83C652D140CC5DDE4FA881B981C4520C
:10EED000D1401196CC5DDE4FB983A883C452D14096
:10EEE000CD0162E070E00F9434F2B0E2B093C6005E
:10EEF0008091C00086FFFCCF8091C0008064809329
:10EF0000C000EDE2E093C6008091C00086FFFCCF18
:10EF10008091C00080648093C000F0E2F093C6004E
:10EF20008091C00086FFFCCF8091C00080648093F8
:10EF3000C000CA5DDE4FE880F9800A811B81C6529D
:10EF4000D140BB27A12F902F8F2D0F940DF2CA5DBA
:10EF5000DE4F8881C652D1400F940DF2B0E2FB2EF5
:10EF6000F092C6008091C00086FFFCCF8091C00067
:10EF700080648093C0000DE30093C6008091C000C0
:10EF800086FFFCCF8091C00080648093C00010E2B7
:10EF90001093C6008091C00086FFFCCF8091C00016
:10EFA00080648093C0008BBEF3012791C65DDE4F65
:10EFB0002883CA52D140A22EBB24CC24DD2408943D
:10EFC000611C711C811C911C8BBEF3018791282E42
:10EFD0003324442455240894611C711C811C911C09
:10EFE0008BBEF3013791C55DDE4F3883CB52D140E4
:10EFF0000894611C711C811C911C8BBEF30147910C
:10F00000C45DDE4F4883CC52D140ADEFEA2EAFEF66
:10F01000FA2EAFEF0A2FAFEF1A2F6E0C7F1C801E57
:10F02000911E142D032DF22CEE24EA0CFB1C0C1D5A
:10F030001D1D0F940DF220E22093C6008091C000A8
:10F0400086FFFCCF8091C00080648093C000C65DC5
:10F05000DE4F8881CA52D1400F940DF230E23093D6
:10F06000C6008091C00086FFFCCF8091C000806404
:10F070008093C000C45DDE4F8881CC52D1400F9494
:10F080000DF240E24093C6008091C00086FFFCCFA5
:10F090008091C00080648093C000C55DDE4F888190
:10F0A000CB52D1400F940DF250E25093C6008091A4
:10F0B000C00086FFFCCF8091C00080648093C000B8
:10F0C0008FEFE8168FEFF80680E0080780E018075A
:10F0D00031F484E092EE60E00F94C2F1DFC0D80119
:10F0E000C7018070907CA070B0708050904CA040A0
:10F0F000B040D1F52FEF3FE340E050E0E222F322B1
:10F1000004231523CA5DDE4FA880B980CA80DB8046
:10F11000C652D140AE0CBF1CC01ED11EAA0CBB1CD7
:10F12000CC1CDD1C8EE092EE60E00F94C2F1BB2798
:10F13000A12F902F8F2D0F940DF28E2D0F940DF285
:10F1400030E23093C6008091C00086FFFCCF8091F2
:10F15000C00080648093C0004EE34093C60080915D
:10F16000C00086FFFCCF87C08EE09EEFA0E0B0E03D
:10F17000E822F9220A231B239CE0E91694E9F90608
:10F1800090E0090790E0190709F088C0C45DDE4FE0
:10F19000A881CC52D140EA2EFF2400E010E0102FCD
:10F1A0000F2DFE2CEE24C55DDE4FB881CB52D14031
:10F1B000EB0EF11C011D111DD601C501817090706F
:10F1C000A070B070DC0199278827E80EF91E0A1F8D
:10F1D0001B1F20EF30E040E050E0A222B322C42207
:10F1E000D52241E1AA0CBB1CCC1CDD1C4A95D1F7F1
:10F1F000EA0CFB1C0C1D1D1D81E090E0A0E0B0E0BE
:10F20000282239224A225B2235E1220C331C441C7D
:10F21000551C3A95D1F7E20CF31C041D151D57013E
:10F220006801AA0CBB1CCC1CDD1C85E192EE60E0E1
:10F230000F94C2F1C801AA27BB270F940DF2BB2778
:10F24000A12F902F8F2D0F940DF28E2D0F940DF274
:10F2500090E29093C6008091C00086FFFCCF809121
:10F26000C00080648093C000AEE3A093C60080918C
:10F27000C00086FFFCCF8091C00080648093C000F6
:10F28000C601AA27BB270F940DF2BB27AD2D9C2DDD
:10F290008B2D0F940DF28A2D0F940DF20F94DCF14B
:10F2A000CC5DDE4FE881F981C452D140F99709F471
:10F2B0004DCBF4E0EF2EF12C012D112D6E0C7F1CA7
:10F2C000801E911EF2CD83E093EE62E00F94F5F183
:10F2D0008AE192EE60E00F94C2F18091C00087FF56
:10F2E000FCCF1091C6001F751093C6008091C0001E
:10F2F00086FFFCCF8091C00080648093C0000F9493
:10F30000DCF1812F81548A3108F036C1163409F4BA
:10F3100095C0173490F4133409F44EC0143430F40B
:10F320001134F1F0123409F01DC130C0143409F465
:10F3300059C0153409F016C16BC01A3409F4C4C0A1
:10F340001B3438F4173409F48FC0183409F00AC19B
:10F35000A1C01B3409F4D2C01C3409F003C1E8C0B9
:10F360008FEF81B90DC082B1809582B980E090E0C5
:10F37000E0EDF7E03197F1F70196883C9105C1F790
:10F380008091C00087FFEFCF12B8EFC08FEF84B934
:10F390000DC085B1809585B980E090E0E0EDF7E0A3
:10F3A0003197F1F70196883C9105C1F78091C00033
:10F3B00087FFEFCF15B8D9C08FEF87B90DC088B1DF
:10F3C000809588B980E090E0E0EDF7E03197F1F7C3
:10F3D0000196883C9105C1F78091C00087FFEFCF6F
:10F3E00018B8C3C08FEF8AB90DC08BB180958BB9A7
:10F3F00080E090E0E0EDF7E03197F1F70196883C8E
:10F400009105C1F78091C00087FFEFCF1BB8ADC059
:10F410008FEF8DB90DC08EB180958EB980E090E0F0
:10F42000E0EDF7E03197F1F70196883C9105C1F7DF
:10F430008091C00087FFEFCF1EB897C08FEF80BBD1
:10F440000DC081B3809581BB80E090E0E0EDF7E0F6
:10F450003197F1F70196883C9105C1F78091C00082
:10F4600087FFEFCF11BA81C08FEF83BB0DC084B38C
:10F47000809584BB80E090E0E0EDF7E03197F1F714
:10F480000196883C9105C1F78091C00087FFEFCFBE
:10F4900014BA6BC08FEF809301010FC080910201FD
:10F4A00080958093020180E090E0E0EDF7E03197F5
:10F4B000F1F70196883C9105C1F78091C00087FF64
:10F4C000EDCF1092020151C08FEF809304010FC065
:10F4D0008091050180958093050180E090E0E0ED4A
:10F4E000F7E03197F1F70196883C9105C1F78091DB
:10F4F000C00087FFEDCF1092050137C08FEF8093DA
:10F5000007010FC08091080180958093080180E079
:10F5100090E0E0EDF7E03197F1F70196883C910536
:10F52000C1F78091C00087FFEDCF109208011DC088
:10F530008FEF80930A010FC080910B01809580931B
:10F540000B0180E090E0E0EDF7E03197F1F70196F4
:10F55000883C9105C1F78091C00087FFEDCF1092E4
:10F560000B0103C085E292EEEEC98091C00087FFD7
:10F57000FCCF8091C600EAC988E392EEE4C98CE131
:10F5800091EEE1C988249924933011F1943028F444
:10F59000913089F09230B8F408C0953061F195301F
:10F5A000F0F0963009F048C043C02B3109F042C951
:10F5B00091E06BE13FC96227C15DDE4F2883CF52E6
:10F5C000D14092E037C9B22FA0E0622793E032C960
:10F5D000822F90E0A82BB92B622794E02BC92E3004
:10F5E00009F039C3622795E0C05DDE4F19821882A9
:10F5F000C053D1401FC9E1E0F0E0EC0FFD1FC05D3A
:10F60000DE4F08811981C053D140E00FF11F2083E4
:10F610000F5F1F4FC05DDE4F19830883C053D14079
:10F6200062270A171B0709F005C9D80196E002C92D
:10F63000261709F010C303C0973009F0FBC87724E0
:10F640009981933109F412C19431C8F4963009F4C8
:10F65000D8C0973050F4923009F406C1933009F4C1
:10F660006DC0913009F059C253C0913109F477C08F
:10F67000923108F0BBC0903109F04FC2F5C098310B
:10F6800009F487C0993150F4953109F4EFC09531F0
:10F6900008F4C6C1963109F040C2C2C19A3109F4DA
:10F6A0006CC09A3108F491C09B3109F45BC09D3164
:10F6B00009F033C29D81903359F48F81882311F46E
:10F6C0009EE11CC0813011F091E018C098E916C08D
:10F6D000892F807591F0903539F4E0E0F0E089E011
:10F6E0008093570094910AC0983539F4E3E0F0E034
:10F6F00089E080935700949101C090E01A821B82A8
:10F700008D818C831D829E831F8227E030E009C299
:10F710001A8288E08B8381E48C8386E58D8382E581
:10F720008E8389E48F8383E5888780E589878FE5E9
:10F730008A8782E38B872BE030E0F3C18A818139AD
:10F7400041F0823941F0803911F48FE005C080E04A
:10F7500003C082E001C08AE01A828B8344C0772410
:10F76000739482C08D81882311F48EE12CC0813086
:10F7700011F081E028C088E926C01A82E1E0F0E0BB
:10F7800089E08093570084918B831C8224E030E0D1
:10F79000C8C18B81803589F48C81883039F4E2E0EE
:10F7A000F0E089E08093570084910DC0E0E0F0E044
:10F7B00089E080935700849106C0E3E0F0E089E09F
:10F7C0008093570084911A82DFCF8D81836C99E0FA
:10F7D000E1E0F0E0082E90935700E89507B600FCB2
:10F7E000FDCF1A821B8223E030E09BC180EC8A832C
:10F7F000CE5CDE4F188219821A821B82C253D1401E
:10F800008EC18A8190E0A0E0B0E0582F44273327D2
:10F8100022278B8190E0A0E0B0E0DC0199278827C7
:10F82000282B392B4A2B5B2B8D8190E0A0E0B0E098
:10F83000282B392B4A2B5B2B8C8190E0A0E0B0E089
:10F84000BA2FA92F982F8827282B392B4A2B5B2BCF
:10F85000220F331F441F551FC05EDE4F288339839C
:10F860004A835B83C052D1401A8259C13A81C95C34
:10F87000DE4F3883C753D140CA5CDE4F1882C6536F
:10F88000D1408B81C82EDD24CA5CDE4F488159816E
:10F89000C653D140C42AD52A933109F082C0CE5C28
:10F8A000DE4F88819981AA81BB81C253D1408050AB
:10F8B000904CA340B04030F583E0CE5CDE4FE88052
:10F8C000F9800A811B81C253D140F70100935B008C
:10F8D00080935700E89507B600FCFDCFCE5CDE4F65
:10F8E000088119812A813B81C253D14000501F4FAA
:10F8F0002F4F3F4FCE5CDE4F088319832A833B8313
:10F90000C253D140C05EDE4F488159816A817B81FC
:10F91000C052D140DE011B9631E08C9111962C91A2
:10F9200011971296C75CDE4F2883C953D140C85C3B
:10F93000DE4F1882C853D14090E0C85CDE4FE881AA
:10F94000F981C853D1408E2B9F2B0C01FA01609393
:10F950005B0030935700E89511244E5F5F4F6F4F67
:10F960007F4F0EEFE02E0FEFF02ECE0CDF1CC114F8
:10F97000D10499F685E0C05EDE4F088119812A81A5
:10F980003B81C052D140F80120935B008093570027
:10F99000E89507B600FCFDCF81E180935700E8951C
:10F9A00035C0C05EDE4F88819981AA81BB81C0527B
:10F9B000D140B695A795979587957C018601ABE0D8
:10F9C000AA2EB12CAC0EBD1E0BC0D5016D915D01F0
:10F9D000C7010F947FFE0894E11CF11C01501040F8
:10F9E0000115110591F7A60160E070E0440F551F65
:10F9F000661F771FC05EDE4FE880F9800A811B8199
:10FA0000C052D1404E0D5F1D601F711F1A82C05E33
:10FA1000DE4F488359836A837B83C052D1407FC0C5
:10FA2000FA80C55CDE4FF882CB53D140C65CDE4F16
:10FA30001882CA53D1408B81C82EDD24C65CDE4FAC
:10FA400008811981CA53D140C02AD12A1A828981DA
:10FA5000BE016D5F7F4F843121F59601C05EDE4FA0
:10FA6000E880F9800A811B81C052D1400BBFF701A9
:10FA700087919691DB018C9311969C936E5F7F4FDB
:10FA8000D801C7010296A11DB11DC05EDE4F88835B
:10FA90009983AA83BB83C052D14022503040F1F6F3
:10FAA00036C0C05EDE4F288139814A815B81C052F9
:10FAB000D1400894C108D108760100E010E0089414
:10FAC000C11CD11C0894E11CF11C011D111DE20E8A
:10FAD000F31E041F151F21BDBB27A52F942F832FB5
:10FAE00082BD2F5F3F4F4F4F5F4FF89A80B5DB01CC
:10FAF0008D93BD012E153F054007510761F7C05E8C
:10FB0000DE4F288339834A835B83C052D1409601FC
:10FB10002D5F3F4FFB01108204C080EC8A8322E0FE
:10FB200030E08BE18093C6008091C00086FFFCCF5F
:10FB30008091C00080648093C000C15DDE4FF88179
:10FB4000CF52D140F093C6008091C00086FFFCCF19
:10FB50008091C00080648093C000432F3093C60022
:10FB60008091C00086FFFCCF8091C00080648093AC
:10FB7000C000922F2093C6008091C00086FFFCCF6A
:10FB80008091C00080648093C0008EE08093C600A6
:10FB90008091C00086FFFCCF8091C000806480937C
:10FBA000C00065E1C15DDE4FE880CF52D1406E25D7
:10FBB00069276427FE01319610C090819093C6009A
:10FBC0008091C00086FFFCCF31968091C000806498
:10FBD0008093C0006927215030402115310569F715
:10FBE0006093C6008091C00086FFFCCF8091C0006A
:10FBF00080648093C00085B1805885B9772081F4F6
:10FC0000C15DDE4F0881CF52D1400F5FC15DDE4F35
:10FC10000883CF52D14090E0A0E0B0E00D941AF4F8
:10FC200027982F9880E090E020ED37E0F901319798
:10FC3000F1F7019684369105C9F700008091C00064
:10FC40008D7F8093C00081E180935700E895EE2777
:10FC5000FF270994FFCF90E00D941AF497FB092E2B
:10FC600007260AD077FD04D02ED006D000201AF443
:10FC7000709561957F4F0895F6F7909581959F4F08
:10FC80000895A1E21A2EAA1BBB1BFD010DC0AA1FDD
:10FC9000BB1FEE1FFF1FA217B307E407F50720F0F5
:10FCA000A21BB30BE40BF50B661F771F881F991F70
:10FCB0001A9469F760957095809590959B01AC01B9
:10FCC000BD01CF010895AA1BBB1B51E107C0AA1FAC
:10FCD000BB1FA617B70710F0A61BB70B881F991FED
:10FCE0005A95A9F780959095BC01CD010895F99991
:10FCF000FECF92BD81BDF89A992780B50895262F31
:10FD0000F999FECF1FBA92BD81BD20BD0FB6F89400
:0EFD1000FA9AF99A0FBE01960895F894FFCF63
:00000001FF
