:020000040000FA
:100000000C94A7000C94CF000C94CF000C94CF005C
:100010000C94CF000C94CF000C94CF000C94CF0024
:100020000C94CF000C94CF000C94CF000C94CF0014
:100030000C94CF000C94CF000C94CF000C94CF0004
:100040000C94DD0D0C94CF000C94CF000C94CF00D9
:100050000C94CF000C94CF000C94CF000C94CF00E4
:100060000C94CF000C94CF007E306D79335B5F70C1
:100070007F7B771F4E3D4F470000000000000000CF
:10008000000000000000000000002200000000202E
:100090004E780000040100007E306D79335B5F70A4
:1000A0007F7B00000000000000771F4E3D4F475E41
:1000B000373038000E00157E6773055B0F3E000079
:1000C000003B004E0078000802771F0D3D6F475E31
:1000D000171038003000151D6773055B0F1C0000FA
:1000E0000000000000000000000000090003020002
:1000F00000040508000000000000000000000001EE
:1001000002040810204080010204081020010204AB
:100110000810204080400404040404040404020283
:1001200002020202030303030303020203000000AE
:100130000023002600290000000000250028002BD5
:100140000000000000240027002A00001E081124DF
:100150001FBECFEFD8E0DEBFCDBF11E0A0E0B1E021
:10016000E2EEFBE202C005900D92AC35B107D9F783
:1001700022E0ACE5B1E001C01D92A833B207E1F77F
:1001800010E0C7EAD0E004C02197FE010E94EB1006
:10019000C63AD107C9F70E94CE0D0C94EF150C9406
:1001A00000001F93CF93DF93EC01162F0E94A2153E
:1001B000181739F0612FCE01DF91CF911F910C9468
:1001C000AA15DF91CF911F9108950C94A2158EE08E
:1001D0000C948B0E0E94E7002091B7013091B8017A
:1001E0002817390754F40E94E70021E04091B90133
:1001F0005091BA01841795070CF020E0822F0895E2
:100200008FE00C948B0E0E9400012091B30130917D
:10021000B4012817390754F40E94000121E04091ED
:10022000B5015091B601841795070CF020E0822F9C
:100230000895CF93DF93C091B101D091B2010E9494
:100240000001C81BD90BD7FF03C0D195C195D109B7
:1002500081E04091A9015091AA014C175D070CF073
:1002600080E0DF91CF91089580E10C948B0E0E9485
:10027000340121E04091AF015091B00184179507FE
:100280000CF020E0822F08950E94EA00882329F0D4
:100290000E94030181110C94370180E008950E94AF
:1002A000440160E0882389F08DE791E00E94EC0B27
:1002B000882321F061E08DE00E940E0F40E050E0C5
:1002C000BA018CE591E00C94EB0A8CE591E00E9478
:1002D000EC0B882351F060E08DE00E940E0F40E0AF
:1002E00050E0BA018DE791E0EECF08956091B90139
:1002F0007091BA0177FF02C06F5F7F4F7595679568
:1003000090E080E00E94D1006091B7017091B80147
:1003100077FF02C06F5F7F4F7595679581E090E032
:100320000E94D1006091B5017091B60177FF02C0C3
:100330006F5F7F4F7595679582E090E00E94D100D6
:100340006091B3017091B40177FF02C06F5F7F4F7E
:100350007595679583E090E00E94D1006091B101AE
:100360007091B20177FF02C06F5F7F4F75956795FF
:1003700084E090E00E94D1006091AF0185E090E0C0
:100380000E94D1006091AD0186E090E00E94D10012
:100390006091AB0187E090E00E94D1006091A901DB
:1003A00088E090E00C94D1000F938091A50190918A
:1003B000A6010097C1F42091A7013091A8013093C4
:1003C000AA012093A9018530910561F58091A701CB
:1003D0009091A8019093B4018093B3018091B101F1
:1003E0009091B20163C08130910549F42091B90127
:1003F0003091BA013093A8012093A701E4CF823055
:10040000910501F52091A7013091A8013093BA011F
:100410002093B9012091B7013091B8013093A80120
:100420002093A7018630910501F58091A701909155
:10043000A8019093B2018093B1018091AF01909196
:10044000B00134C08330910509F52091A7013091A6
:10045000A8013093B8012093B7012091B5013091E4
:10046000B6013093A8012093A7018730910509F0C8
:100470004BC08091A7019091A8019093B001809307
:10048000AF018091AD019091AE0110C08430910513
:1004900009F099CF8091A7019091A8019093B6019E
:1004A0008093B5018091B3019091B4019093A8011C
:1004B0008093A7018091A5019091A601099709F069
:1004C00048C04091A7015091A8015093AC014093BE
:1004D000AB018091A9019091AA019093A80180930A
:1004E000A701052E000C660B770B01E022E030E03F
:1004F0008CE591E00E94670B40E050E0BA018CE58A
:1005000091E00F910C94EB0A0897A1F64091A70196
:100510005091A8015093AE014093AD018091AB0181
:100520009091AC019093A8018093A701052E000C37
:10053000660B770B01E022E030E08DE791E00E944E
:10054000670B40E050E0BA018DE791E00E94EB0AB2
:10055000B1CF0F910895FF920F931F93CF93DF9325
:1005600000D000D01F92CDB7DEB7F62E9F938F93A9
:1005700087E091E09F938F938E010F5F1F4F1F9332
:100580000F930E9401134F2DB8018CED91E00E9452
:10059000B2090F900F900F900F900F900F900F9047
:1005A0000F900F900F900F90DF91CF911F910F91AF
:1005B000FF90089570E060E08091A7019091A801FC
:1005C0000C94AB0260E00C94D20E61E00C94D20E5D
:1005D0000E943C0F21E0892B09F420E0822F08952E
:1005E00081E190E00E94E802882321F181E190E01E
:1005F0000E94E80291E089279091A20189131AC014
:1006000081E190E00E94E8028093A2018091A5011F
:100610009091A60101969093A6018093A50140E0D8
:1006200050E0BA018BEB91E00E94EB0A0E94D401EA
:100630000E94760181E190E00E94E802811106C0EB
:1006400081E190E00E94E8028093A201089582E196
:1006500090E00E94E8028823C9F082E190E00E94C5
:10066000E80291E089279091A10189130FC082E1EE
:1006700090E00E94E8028093A1018091A7019091EF
:10068000A80101969093A8018093A70182E190E0D0
:100690000E94E802811106C082E190E00E94E80217
:1006A0008093A101089583E190E00E94E8028823ED
:1006B000C9F083E190E00E94E80291E089279091DF
:1006C000A00189130FC083E190E00E94E8028093AB
:1006D000A0018091A7019091A80101979093A80192
:1006E0008093A70183E190E00E94E802811106C097
:1006F00083E190E00E94E8028093A0010895BF92F8
:10070000CF92DF92EF92FF920F931F93CF93DF93DD
:1007100000D000D000D0CDB7DEB78C01B62ECDB65C
:10072000DEB6FC0184819581049794F460E1CE01EA
:1007300001960E94320DB801CE0101960E948D0DE6
:10074000BC01C8010E944A0DCE0101960E94A40C72
:10075000F801448155814F5F5F4F8DB79EB7841B71
:10076000950B0FB6F8949EBF0FBE8DBFEDB7FEB7C9
:1007700031967F0130E020E0BF01C8010E94A00D4A
:100780004B2DB7018CED91E00E94B2090FB6F894A1
:10079000DEBE0FBECDBE26960FB6F894DEBF0FBEEE
:1007A000CDBFDF91CF911F910F91FF90EF90DF9020
:1007B000CF90BF9008951F93CF93DF9300D000D0C8
:1007C00000D0CDB7DEB7182F8CE090E00E94E80291
:1007D0008111ECC080919F0181110AC040E050E07E
:1007E000BA018BEB91E00E94EB0A81E080939F01BC
:1007F00080919E011111EBC0811103C081E08093B3
:100800009E0161E08BEB91E00E94EC0B882349F0A4
:100810008091A3019091A40101969093A4018093EB
:10082000A301111151C08091A3019091A4010196DF
:1008300009F04AC00E94EA0081110AC00E94030127
:10084000811106C00E9437016CE071E0882371F1CC
:100850000E94EA00811110C061E171E0CE010196B1
:100860000E94130D70E060E0CE0101960E947F03AC
:10087000CE0101960E94A40C0E940301811110C0B8
:1008800066E171E0CE0101960E94130D70E060E018
:10089000CE0101960E947F03CE0101960E94A40C16
:1008A0000E943701811110C06BE171E0CE01019609
:1008B0000E94130D70E060E0CE0101960E947F035C
:1008C000CE0101960E94A40C8091A3019091A401F5
:1008D000892B81F460E271E0CE0101960E94130D34
:1008E00070E060E0CE0101960E947F03CE01019688
:1008F0000E94A40C8091A3019091A401019731F46E
:100900000E94E70070E060E00E94AB028091A301CA
:100910009091A401029781F465E271E0CE01019605
:100920000E94130D70E060E0CE0101960E947F03EB
:10093000CE0101960E94A40C8091A3019091A40184
:10094000039731F40E94000170E060E00E94AB0266
:100950008091A3019091A401049781F46AE271E06F
:10096000CE0101960E94130D70E060E0CE01019669
:100970000E947F03CE0101960E94A40C8091A301E6
:100980009091A401059731F40E94340170E060E079
:100990000E94AB028091A3019091A401069731F4CB
:1009A000112371F01092A4011092A30126960FB6A4
:1009B000F894DEBF0FBECDBFDF91CF911F91089598
:1009C0008FEF9FEF9093A4018093A301EFCF882333
:1009D00009F417CF10929E0114CF0E9400012091BC
:1009E000B1013091B201821793076CF40E94190192
:1009F000882349F00E94EA00882329F00E943701E9
:100A000061E0811101C060E084E10E940E0F0E944C
:100A100000012091B1013091B201281739076CF023
:100A200060E085E10E940E0F0E944401882399F046
:100A300081E00E94DB030C944F010E94190188237E
:100A400079F30E94EA00882359F30E943701882332
:100A500039F361E0E6CF80E0ECCFCF93DF9300D0B5
:100A600000D000D0CDB7DEB76FE271E0CE010196C5
:100A70000E94130D70E060E0CE0101960E947F039A
:100A8000CE0101960E94A40C26960FB6F894DEBF04
:100A90000FBECDBFDF91CF910895CF93DF9300D0EC
:100AA00000D000D0CDB7DEB760E08BEB91E00E94C4
:100AB000EC0B882359F00E94DA0226960FB6F894C0
:100AC000DEBF0FBECDBFDF91CF91089564E371E02B
:100AD000CE0101960E94130D70E060E0CE010196F8
:100AE0000E947F03CE0101960E94A40CE6CFCF9313
:100AF000DF9300D000D000D0CDB7DEB760E08BEB45
:100B000091E00E94EC0B882359F00E94DA022696AD
:100B10000FB6F894DEBF0FBECDBFDF91CF91089521
:100B200068E371E0CE0101960E94130D70E060E071
:100B3000CE0101960E947F03CE0101960E94A40C73
:100B4000E6CFCF93DF9300D000D000D0CDB7DEB793
:100B500060E08BEB91E00E94EC0B882359F00E943F
:100B6000DA0226960FB6F894DEBF0FBECDBFDF9136
:100B7000CF9108956CE371E0CE0101960E94130DB0
:100B800070E060E0CE0101960E947F03CE010196E5
:100B90000E94A40CE6CFCF93DF9300D000D000D00A
:100BA000CDB7DEB760E08BEB91E00E94EC0B8823C1
:100BB00059F00E94DA0226960FB6F894DEBF0FBEF7
:100BC000CDBFDF91CF91089560E471E0CE01019631
:100BD0000E94130D70E060E0CE0101960E947F0339
:100BE000CE0101960E94A40CE6CFCF93DF9300D0F4
:100BF00000D000D0CDB7DEB760E08BEB91E00E9473
:100C0000EC0B882359F00E94DA0226960FB6F8946E
:100C1000DEBF0FBECDBFDF91CF91089564E471E0D8
:100C2000CE0101960E94130D70E060E0CE010196A6
:100C30000E947F03CE0101960E94A40CE6CFCF93C1
:100C4000DF9300D000D000D0CDB7DEB760E08BEBF3
:100C500091E00E94EC0B882359F00E94DA0226965C
:100C60000FB6F894DEBF0FBECDBFDF91CF910895D0
:100C700069E471E0CE0101960E94130D70E060E01E
:100C8000CE0101960E947F03CE0101960E94A40C22
:100C9000E6CFCF93DF9300D000D000D0CDB7DEB742
:100CA00060E08BEB91E00E94EC0B882359F00E94EE
:100CB000DA0226960FB6F894DEBF0FBECDBFDF91E5
:100CC000CF9108956DE471E0CE0101960E94130D5D
:100CD00070E060E0CE0101960E947F03CE01019694
:100CE0000E94A40CE6CFCF93DF9300D000D000D0B9
:100CF000CDB7DEB760E08BEB91E00E94EC0B882370
:100D000059F00E94DA0226960FB6F894DEBF0FBEA5
:100D1000CDBFDF91CF91089561E571E0CE010196DD
:100D20000E94130D70E060E0CE0101960E947F03E7
:100D3000CE0101960E94A40CE6CFCF93DF9300D0A2
:100D400000D000D0CDB7DEB760E08BEB91E00E9421
:100D5000EC0B882359F00E94DA0226960FB6F8941D
:100D6000DEBF0FBECDBFDF91CF91089566E571E084
:100D7000CE0101960E94130D70E060E0CE01019655
:100D80000E947F03CE0101960E94A40CE6CF8091C1
:100D9000A5019091A601892B11F40E942D05809147
:100DA000A5019091A601019711F40E944D05809133
:100DB000A5019091A601029711F40E9477058091F8
:100DC000A5019091A601039711F40E94A1058091BD
:100DD000A5019091A601049711F40E94CB05809182
:100DE000A5019091A601059711F40E94F505809147
:100DF000A5019091A601069711F40E941F0680910B
:100E0000A5019091A601079711F40E9449068091CF
:100E1000A5019091A601089711F40E947306809194
:100E2000A5019091A601099711F40E949D06809159
:100E3000A5019091A6010A9724F01092A6011092A4
:100E4000A5018091A5019091A60197FF06C089E0B8
:100E500090E09093A6018093A50108950E94F0026E
:100E60000E9427030E9453038CE090E00E94E80256
:100E700081110C94C7060C94ED048F92AF92CF921F
:100E8000EF920F9387E08F9386E08F9385E08F93A7
:100E900084E08F9383E08F9382E08F938824839400
:100EA000A12C8BE0C82E9AE0E92E09E028E044E06E
:100EB00060E08CED91E00E9450090F900F900F9030
:100EC0000F900F900F9064E68CED91E00F91EF90F2
:100ED000CF90AF908F900C947D090F93CF930E9489
:100EE0003D0781E190E00E94E20282E190E00E94F1
:100EF000E20283E190E00E94E2028CE090E00E9436
:100F0000E2028EE090E00E94E2028FE090E00E9418
:100F1000E20280E190E00E94E20284E190E00E941F
:100F2000E50285E190E00E94E5028DE090E00E94FC
:100F3000E50290E080E00E94E50090E0880F991FB4
:100F40009093BA018093B90181E090E00E94E5009E
:100F500090E0880F991F9093B8018093B70182E0C9
:100F600090E00E94E50090E0880F991F9093B601F1
:100F70008093B50183E090E00E94E50090E0880F47
:100F8000991F9093B4018093B30184E090E00E9494
:100F9000E50090E0880F991F9093B2018093B10112
:100FA00085E090E00E94E50090E09093B00180938E
:100FB000AF0186E090E00E94E500C82F90E090939A
:100FC000AE018093AD0187E090E00E94E50090E0E3
:100FD0009093AC018093AB0188E090E00E94E50023
:100FE00090E09093AA018093A9014C2F50E070E00B
:100FF00060E001E022E030E08DE791E00E94670BC5
:101000004091AB015091AC01052E000C660B770BA3
:1010100022E030E08CE591E00E94670B40E050E078
:10102000BA018DE791E00E94EB0A40E050E0BA017E
:101030008CE591E0CF910F910C94EB0A8CED91E04F
:101040000E94480822E030E041E050E060E070E0BB
:101050008BEB91E00E94280C4091AD015091AE01C4
:10106000052E000C660B770B22E030E08DE791E057
:101070000E94280C4091AB015091AC01052E000C50
:10108000660B770B22E030E08CE591E00C94280CA5
:10109000885B9F4FFC01108208956F927F928F9220
:1010A000AF92CF92DF92EF92FF920F931F93CF9365
:1010B000DF93CDB7DEB73C01FF84F889E9897A89EF
:1010C0005B893C899D898E89DF88188DD30155966F
:1010D0004C93559715962C93159716960C93169737
:1010E0001796EC9217971896CC92189719968C929F
:1010F00019971A96AC921A971D96FC921D971E96F8
:10110000FC931E971F96EC931F9750967C935097D5
:1011100051965C93519752963C93529753969C9359
:10112000539754968C9354971B961C931B971C961D
:10113000DC921C976C93662309F445C041E011963C
:101140004C93119712961C92129713961C92139718
:1011500014964C93D30158962C93589759960C9308
:1011600059975A96EC925A975B96CC925B975C96FD
:10117000FC925C975D96FC935D975E96EC935E9710
:101180005F967C935F9790965C93909791963C9333
:10119000919792969C93929793968C9310E0F3017B
:1011A00085891817E8F47301E10EF11C6281D701FB
:1011B00058968C910E940E0F61E0F701808D0E947D
:1011C000D20E1F5FECCF11961C92119741E0129640
:1011D0004C93129713964C93139714961C92BACF74
:1011E00083017301F8E0EF0EF11CD30114966C91AA
:1011F000F801848D0E940E0F61E0D8015C968C91FD
:101200000E94D20E0F5F1F4FE016F10671F7F30137
:1012100082858F3FA1F062810E940E0F61E0D301B1
:101220001A968C910E94D20EF301648184850E94EB
:101230000E0F61E0D3011C968C910E94D20EF30137
:1012400081858F3F01F162810E940E0F61E0D30121
:1012500019968C910E94D20EF301648183850E94BD
:101260000E0F61E0D3011B968C91DF91CF911F91FE
:101270000F91FF90EF90DF90CF90AF908F907F9085
:101280006F900C94D20EDF91CF911F910F91FF9030
:10129000EF90DF90CF90AF908F907F906F900895F8
:1012A0008F92AF92CF92EF920F93CF93DF93CDB700
:1012B000DEB73FEF3F933F933F853F933E853F939C
:1012C0003D853F933C853F933B853F933A853F93D4
:1012D0008F92AF9288248A94AA24AA940E944D08DF
:1012E0000FB6F894DEBF0FBECDBFDF91CF910F9147
:1012F000EF90CF90AF908F900895AF92BF92CF9222
:10130000DF92EF92FF920F931F93CF93DF93EC0145
:10131000653608F064E670E090E080E01F921F926E
:1013200027E02F9320ED2F93A12CB12C650114E61B
:10133000E12EF12C00E010E020E030E0A9010E9455
:10134000630C7F8B6E8B0F900F900F900F90DF913F
:10135000CF911F910F91FF90EF90DF90CF90BF90B2
:10136000AF9008954F925F927F929F92AF92BF92FB
:10137000CF92DF92EF92FF921F93CF93DF93EC0116
:101380006B01742E11E0A42EB12C81EDE82E87E0C4
:10139000F82E8D89811708F4CDC0412E512C1230C2
:1013A00009F441C0A0F51130C9F1F601E40DF51DB5
:1013B0003197908097FE3DC090FE04C06B818D8573
:1013C0000E940E0F91FE04C06B818E850E940E0F4D
:1013D00092FE04C06B818F850E940E0F93FE04C0A5
:1013E0006B8188890E940E0F94FE04C06B818989ED
:1013F0000E940E0F95FE04C06B818A890E940E0F19
:1014000096FE42C06B818B890E940E0F3DC0133047
:1014100069F0143051F66981888502C069818D8137
:101420000E940E0FC2CF69818E81FACF69818F81B0
:10143000F7CFE92DF0E0E859FF4F949096FE04C0F5
:101440006B818D850E940E0F95FE04C06B818E8589
:101450000E940E0F94FE04C06B818F850E940E0FB8
:1014600093FE04C06B8188890E940E0F92FE04C017
:101470006B8189890E940E0F91FE04C06B818A895D
:101480000E940E0F90FCBECFC2010197950102C0D1
:10149000359527958A95E2F720FF06C0153020F490
:1014A0006B818C890E940E0F8E899F8901960E9404
:1014B000580E6C818D850E940E0F6C818E850E9466
:1014C0000E0F6C818F850E940E0F6C8188890E949F
:1014D0000E0F6C8189890E940E0F6C818A890E948F
:1014E0000E0F6C818B890E940E0F6C818C890E947B
:1014F0000E0F1230C9F060F4113089F08E899F8987
:101500009701281B390BC9010E94580E1F5F41CF5C
:10151000133069F0143091F76A81888502C06A81BE
:101520008D810E940E0FEACF6A818E81FACF6A8187
:101530008F81F7CF8A858F3F19F499859F3FE9F115
:1015400074FE07C069810E940E0F6B818C850E941A
:101550000E0F75FE08C0698189850E940E0F6B8190
:101560008B850E940E0F8E899F8901960E94580ECE
:101570006A818A850E940E0F6C818C850E940E0FF5
:101580006A8189850E940E0F6C818B850E940E0FE7
:101590002E893F8981ED97E0821B930BDF91CF91DC
:1015A0001F91FF90EF90DF90CF90BF90AF909F90F2
:1015B0007F905F904F900C94580EDF91CF911F91C8
:1015C000FF90EF90DF90CF90BF90AF909F907F9073
:1015D0005F904F9008950F931F93CF93DF93EC018B
:1015E000411551056105710531F48B899C8900977E
:1015F00061F00397B8F0488359836A837B831A8A22
:10160000DF91CF911F910F9108950E94330E0885AD
:1016100019852A853B85AB01BC01400F511F621F14
:10162000731FE9CF0E94270E0C811D812E813F81FF
:10163000F2CFCF93DF93EC01CB01BA012B893C8928
:1016400021303105A1F030F022303105B9F0DF91C1
:10165000CF9108950E94940F2DEB37E346E855E3B0
:101660000E9422106D8B7E8B8F8B988FF0CF0E9403
:10167000940F2FE632E143E85AE3F2CF0E94940F31
:10168000F1CFCF93DF93EC01CB01BA0121303105CB
:10169000A1F030F022303105B9F0DF91CF910895FB
:1016A0000E94940F2DEB37E346E855E30E94221089
:1016B0006D8B7E8B8F8B988FF0CF0E94940F2FE6CF
:1016C00032E143E85AE3F2CF0E94940FF1CF0F9337
:1016D000CF93DF93EC010E94410B002349F040E0DF
:1016E00050E0BA01CE01DF91CF910F910C94EB0A3B
:1016F000DF91CF910F910895CF92DF92EF92FF92F9
:101700000F931F93CF93DF93EC01CC80DD80EE80AD
:10171000FF800E94270E2B893C892115310539F065
:101720002330310550F060E070E0CB0112C0C88476
:10173000D984EA84FB840E94330E088119812A81AE
:101740003B81C01AD10AE20AF30A6C0D7D1D8E1D81
:101750009F1DDF91CF911F910F91FF90EF90DF9030
:10176000CF900895CF92DF92EF92FF92CF93DF93C5
:10177000EC018B899C898130910521F150F0029711
:1017800009F1822FDF91CF91FF90EF90DF90CF9002
:101790000895CE010E947C0B6B017C0120E034E2B5
:1017A00044E759E46D897E898F89988D0E942210C3
:1017B0000E94650F21E0C616D706E806F90608F76D
:1017C00020E0DFCFCE010E947C0B6B017C0120E08A
:1017D00030E04AE754E4E6CF0F931F93CF93DF93B3
:1017E0008C01D62F0E94B20BC82FDD2341F0882335
:1017F00031F040E050E0BA01C8010E94EB0AF80164
:10180000858D968D892B09F0C0E08C2FDF91CF91CB
:101810001F910F9108952091290230912A02232BC4
:1018200061F4909328028093270290932A02809378
:101830002902FC0110A2178E0895E0912702F09171
:10184000280290A3878F9093280280932702F1CFDC
:10185000CF93DF93EC011C821D821E821F821886AB
:1018600019861A861B861C861D861E861F86198A67
:10187000188A1A8A1E8E1D8E81E090E0E091250262
:10188000F0912602319711F090E080E090932602CB
:10189000809325023C8B2B8BCE010E94190B40E0DC
:1018A00050E0BA01CE010E94EB0A8091250290918E
:1018B0002602892B29F4CE01DF91CF910C940B0CD9
:1018C000DF91CF9108954F925F926F927F92AF9286
:1018D000BF92CF92DF92EF92FF920F931F93CF931D
:1018E000DF93CDB7DEB729013A019B01AC01241982
:1018F00035094609570989899A89AB89BC89BC0190
:10190000CD016A197B098C099D090E948F10A801DD
:10191000970124193509460957090E94C110CA01C7
:10192000B9016A0D7B1D8C1D9D1DDF91CF911F910B
:101930000F91FF90EF90DF90CF90BF90AF907F908E
:101940006F905F904F900895FC01808191810C947D
:101950009C11CF93DF93EC0188819981009711F05E
:101960000E949C11198218821D821C821B821A827D
:10197000DF91CF9108950F931F93CF93DF93EC01E5
:101980008B016F5F7F4F888199810E94251200979C
:1019900051F0998388831B830A8381E0DF91CF9183
:1019A0001F910F91089580E0F9CFCF93DF93EC0161
:1019B00088819981892B49F08A819B8186179707B5
:1019C00020F081E0DF91CF910895CE010E94BB0C01
:1019D0008823C1F38C819D81892B99F7E881F98156
:1019E0001082EFCFEF92FF920F931F93CF93DF936D
:1019F000EC017B018A01BA010E94D50C81110BC058
:101A0000CE010E94A90CCE01DF91CF911F910F91C1
:101A1000FF90EF9008951D830C83B7018881998111
:101A20000E94EB12F0CFFC0111821082138212820D
:101A3000158214826115710551F0FB01019000209F
:101A4000E9F73197AF01461B570B0C94F20C089540
:101A5000FB0101900020E9F73197AF01461B570BBE
:101A60000C94F20CCF93DF9300D0CDB7DEB7FC011E
:101A700011821082138212821582148269831A8263
:101A8000BE016F5F7F4F0E94280D0F900F90DF9176
:101A9000CF910895CF93DF93EC01FB018617970751
:101AA00049F0608171816115710541F04481558172
:101AB0000E94F20CCE01DF91CF9108950E94A90CF3
:101AC000F9CFEF92FF920F931F93CF93DF9361159E
:101AD000710541F480E0DF91CF911F910F91FF904C
:101AE000EF90089541155105B1F07B01EC010C8197
:101AF0001D81040F151FB8010E94D50C882351F3D6
:101B0000288139818C819D81B701820F931F0E94AA
:101B1000EB121D830C8381E0DECFCF93DF93EC01CA
:101B2000FB0144815581608171810E94610D8111A9
:101B300003C0CE010E94A90CCE01DF91CF91089580
:101B40000F931F93CF93DF934115510559F0611502
:101B5000710541F0FC01048115812017310738F02F
:101B6000FB011082DF91CF911F910F910895415099
:101B70005109021B130B4017510708F48A01EB01AE
:101B8000FC0160817181620F731FA801CE010E9468
:101B9000F212C00FD11F1882E5CF08950E94630E84
:101BA0000E94CD0D0E946D07C0E0D0E00E942E077C
:101BB0002097E1F30E940000F9CF1F920F920FB619
:101BC0000F9211242F933F938F939F93AF93BF93C3
:101BD0008091300290913102A0913202B091330293
:101BE00030912F0226E0230F2D3768F129E8230FCB
:101BF0000396A11DB11D20932F0280933002909374
:101C00003102A0933202B093330280912B02909163
:101C10002C02A0912D02B0912E020196A11DB11DA2
:101C200080932B0290932C02A0932D02B0932E024E
:101C3000BF91AF919F918F913F912F910F900FBEC8
:101C40000F901F9018950296A11DB11DD4CF2FB7EC
:101C5000F89460913002709131028091320290913B
:101C600033022FBF08953FB7F89480912B029091D3
:101C70002C02A0912D02B0912E0226B5A89B05C082
:101C80002F3F19F00196A11DB11D3FBFBA2FA92FFB
:101C9000982F8827BC01CD01620F711D811D911DF8
:101CA00043E0660F771F881F991F4A95D1F7089563
:101CB000000000008330910528F0880F991F0597D8
:101CC0000197F1F70895789484B5836084BD85B554
:101CD000836085BDEEE6F0E0808181608083E1E88D
:101CE000F0E082E08083808181608083E0E8F0E042
:101CF000808181608083E1EBF0E08081846080837B
:101D0000E0EBF0E080818160808386E880937A0058
:101D10001092C1000895883020F08D3008F48DE0D5
:101D20008E502091060190E4299F90011124877024
:101D3000822B80937C0080917A00806480937A006B
:101D400080917A0086FDFCCF809178009091790097
:101D50000895843081F028F48230E9F08330F9F07E
:101D60000895883071F0893091F08530B9F4809110
:101D700080008F7D03C0809180008F7780938000EA
:101D800008958091B0008F778093B000089580917E
:101D9000B0008F7DF9CF84B58F7784BD089584B569
:101DA0008F7DFBCFCF93DF9390E0FC01E150FF4F9D
:101DB00024918A5E9E4FFC0184918823C9F090E0B3
:101DC000880F991FFC01EF5BFE4FA591B491FC01B8
:101DD000E95CFE4FC591D49161110DC09FB7F89495
:101DE0008C91209582238C938881282328839FBF00
:101DF000DF91CF910895623051F49FB7F8943C91F0
:101E0000822F809583238C93E8812E2BEFCF8FB781
:101E1000F894EC912E2B2C938FBFEACF1F93CF9386
:101E2000DF93282F30E0F901E851FF4F8491F90149
:101E3000E150FF4FD491F901EA5EFE4FC491CC23EB
:101E4000A9F0162F81110E94A90EEC2FF0E0EE0FE1
:101E5000FF1FE95CFE4FA591B4918FB7F894EC9108
:101E6000111108C0D095DE23DC938FBFDF91CF9195
:101E70001F910895DE2BF8CFCF93DF93282F30E00A
:101E8000F901E851FF4F8491F901E150FF4FD491DE
:101E9000F901EA5EFE4FC491CC23A1F081110E94AA
:101EA000A90EEC2FF0E0EE0FFF1FE35DFE4FA591B2
:101EB000B491EC91ED2381E090E009F480E0DF91B2
:101EC000CF91089580E090E0FACF0E94011088F051
:101ED0009F5798F0B92F9927B751B0F0E1F0660FEE
:101EE000771F881F991F1AF0BA95C9F714C0B1302F
:101EF00091F00E941B10B1E008950C941B10672F05
:101F0000782F8827B85F39F0B93FCCF3869577955D
:101F10006795B395D9F73EF4909580957095619546
:101F20007F4F8F4F9F4F0895E89409C097FB3EF471
:101F300090958095709561957F4F8F4F9F4F992316
:101F4000A9F0F92F96E9BB279395F6958795779594
:101F50006795B795F111F8CFFAF4BB0F11F460FF54
:101F60001BC06F5F7F4F8F4F9F4F16C0882311F0AC
:101F700096E911C0772321F09EE8872F762F05C0C0
:101F8000662371F096E8862F70E060E02AF09A955B
:101F9000660F771F881FDAF7880F9695879597F950
:101FA000089597F99F6780E870E060E008959FEFDB
:101FB00080EC089500240A941616170618060906E0
:101FC000089500240A9412161306140605060895AF
:101FD000092E0394000C11F4882352F0BB0F40F437
:101FE000BF2B11F460FF04C06F5F7F4F8F4F9F4F77
:101FF000089557FD9058440F551F59F05F3F71F0F9
:102000004795880F97FB991F61F09F3F79F087955F
:102010000895121613061406551FF2CF4695F1DFE8
:1020200008C0161617061806991FF1CF8695710578
:10203000610508940895E894BB2766277727CB01AC
:1020400097F908950E9435100C94E80F0E94DA0F5A
:1020500038F00E94E10F20F0952311F00C94D10F7D
:102060000C94D70F11240C941C100E94F90F70F3DC
:10207000959FC1F3950F50E0551F629FF001729F2D
:10208000BB27F00DB11D639FAA27F00DB11DAA1F3C
:10209000649F6627B00DA11D661F829F2227B00D89
:1020A000A11D621F739FB00DA11D621F839FA00D14
:1020B000611D221F749F3327A00D611D231F849F64
:1020C000600D211D822F762F6A2F11249F575040BB
:1020D0009AF0F1F088234AF0EE0FFF1FBB1F661F36
:1020E000771F881F91505040A9F79E3F510580F0FF
:1020F0000C94D10F0C941C105F3FE4F3983ED4F382
:10210000869577956795B795F795E7959F5FC1F7A2
:10211000FE2B880F911D9695879597F90895DB0101
:102120008F939F930E94E010BF91AF91A29F800D6B
:10213000911DA39F900DB29F900D11240895A1E2CF
:102140001A2EAA1BBB1BFD010DC0AA1FBB1FEE1F31
:10215000FF1FA217B307E407F50720F0A21BB30B7C
:10216000E40BF50B661F771F881F991F1A9469F7F8
:1021700060957095809590959B01AC01BD01CF0154
:102180000895052E97FB1EF400940E94D81057FD69
:1021900007D00E949F1007FC03D04EF40C94D81077
:1021A00050954095309521953F4F4F4F5F4F089583
:1021B00090958095709561957F4F8F4F9F4F0895B3
:1021C0000E94F110A59F900DB49F900DA49F800DCB
:1021D000911D11240895EE0FFF1F0590F491E02D3D
:1021E0000994A29FB001B39FC001A39F700D811DF0
:1021F0001124911DB29F700D811D1124911D089510
:102200000F931F93CF93DF938230910510F482E0F8
:1022100090E0E0913602F091370230E020E0B0E04B
:10222000A0E0309799F42115310509F44AC0281B24
:10223000390B24303105D8F58A819B8161157105F0
:1022400089F1FB0193838283FE0111C0408151819A
:102250000281138148175907E0F04817590799F48C
:10226000109761F012960C93129713961C93329666
:10227000CF01DF91CF911F910F9108950093360206
:1022800010933702F4CF2115310551F0421753074F
:1022900038F0A901DB019A01BD01DF01F801C1CFCE
:1022A000EF01F9CF9093370280933602CDCFFE0134
:1022B000E20FF31F819391932250310939832883D0
:1022C000D7CF2091340230913502232B41F4209155
:1022D00002013091030130933502209334022091A2
:1022E0000001309101012115310541F42DB73EB7B0
:1022F0004091040150910501241B350BE0913402FB
:10230000F0913502E217F307A0F42E1B3F0B2817BC
:10231000390778F0AC014E5F5F4F2417350748F05E
:102320004E0F5F1F50933502409334028193919377
:102330009FCFF0E0E0E09CCFCF93DF930097E9F0F0
:10234000FC01329713821282A0913602B0913702BB
:10235000ED0130E020E01097A1F420813181820F5F
:10236000931F20913402309135022817390709F064
:1023700061C0F0933502E0933402DF91CF9108956C
:10238000EA01CE17DF07E8F54A815B819E0141151E
:102390005105B1F7E901FB83EA8349915991C40FD3
:1023A000D51FEC17FD0761F4808191810296840F9F
:1023B000951FE90199838883828193819B838A8316
:1023C000F0E0E0E012968D919C9113970097B9F59B
:1023D0002D913C911197CD010296820F931F209170
:1023E0003402309135022817390739F6309751F504
:1023F0001092370210923602B0933502A093340245
:10240000BCCFD383C28340815181840F951FC817ED
:10241000D90761F44E5F5F4F88819981480F591F3A
:10242000518340838A819B81938382832115310567
:1024300009F0B0CFF0933702E09336029ECFFD0152
:10244000DC01C0CF13821282D7CFB0E0A0E0EBE274
:10245000F2E10C94BA158C01009751F4CB010E9463
:1024600000118C01C801CDB7DEB7E0E10C94D615A0
:10247000FC01E60FF71F9C0122503109E217F30718
:1024800008F49DC0D901CD91DC911197C617D707EB
:1024900098F0C530D10530F3CE0104978617970721
:1024A00008F3C61BD70B2297C193D1936D937C93EE
:1024B000CF010E949C11D6CF5B01AC1ABD0A4C0122
:1024C0008C0E9D1EA0913602B0913702512C412CEA
:1024D000F12CE12C109731F5809134029091350266
:1024E0008815990509F05CC04616570608F058C0D3
:1024F0008091000190910101009741F48DB79EB742
:102500004091040150910501841B950BE817F907D0
:1025100008F055C0F0933502E0933402F90171835D
:102520006083A0CF8D919C91119712966C90129719
:1025300013967C901397A815B90559F56C0142E0E4
:10254000C40ED11CCA14DB0420F1AC014A195B098A
:10255000DA011296159780F062827382518340836C
:10256000D9016D937C93E114F10471F0D7011396B6
:10257000FC93EE93129776CF22968C0F9D1FF90154
:1025800091838083F301EFCFF0933702E09336021B
:1025900069CF4816590608F42C017D01D3019ACF62
:1025A000CB010E9400117C01009749F0AE01B801F7
:1025B0000E94E212C8010E949C11870153CF10E0D3
:1025C00000E050CFFB01DC0102C001900D924150B0
:1025D0005040D8F70895FB01DC0101900D920020D6
:1025E000E1F70895FB01DC014150504048F00190B3
:1025F0000D920020C9F701C01D9241505040E0F7F4
:102600000895AEE0B0E0E7E0F3E10C94C6150D8963
:102610001E8986E08C831A8309838FEF9FE79E8350
:102620008D83AE01475E5F4F6F89788DCE01019635
:102630000E9424132F813885020F131FF801108286
:102640002E96E4E00C94E215ABE0B0E0EAE2F3E1B0
:102650000C94B8157C013B018A01FC01178216829B
:10266000838181FFC8C1CE0101965C01F70193818E
:10267000F30193FD859193FF81913F01882309F434
:1026800053C1853239F493FD859193FF81913F01C8
:10269000853229F4B70190E00E941415E7CF912C00
:1026A000212C312CFFE1F31538F08B3211F190F42D
:1026B000803209F1833229F137FC3CC020ED280F2C
:1026C0002A3050F536FE20C08AE0989E200D112455
:1026D000922E06C08D3291F0803371F7689430F8F5
:1026E000F30193FD859193FF81913F018111DACF31
:1026F00021C0689431F8689432F8F2CF689433F8C6
:10270000EFCF689434F8ECCFEAE02E9E200D112430
:10271000222E689435F8E4CF8E3229F436FC04C1B9
:10272000689436F8DDCF8C3619F4689437F8D8CF32
:102730008836B1F2982F9F7D95549330E0F0833620
:10274000A1F18337C1F1833509F063C02801F2E0BC
:102750004F0E511CF801C080D180692D70E036FC0D
:1027600002C06FEF7FEFC6010E94FE144C01689417
:1027700037F882010AC00C5F1F4FFFE3F9838824FA
:102780008394912C6501E89437F833FE2DC0522CC8
:102790008114910471F5552009F468CFB70180E2E6
:1027A00090E00E9414155A94F6CFF8018081898335
:1027B0000E5F1F4FE4CF2801F2E04F0E511CF801CD
:1027C000C080D180692D70E036FC02C06FEF7FEFD2
:1027D000C6010E9409154C018201D5CFB70180E2E4
:1027E00090E00E9414152A942814190409F0B0F7F7
:1027F000CECFF60137FC859137FE81916F01B7018D
:1028000090E00E94141551105A94F1E08F1A91082B
:10281000BFCF843619F0893609F077C0F80137FE4A
:102820006BC060817181828193810C5F1F4FF32D9A
:10283000FF763F2E97FF09C0909580957095619522
:102840007F4F8F4F9F4F689437F82AE030E0A50103
:102850000E944415C82ECA188C2C432C36FE0CC07E
:10286000E89440F8C91440F434FE05C032FC03C0BB
:10287000F32DFE7E4F2E892C44FE95C0FE01EC0DFB
:10288000F11D8081803309F087C0242D297E422EDE
:10289000842D8870582E43FC95C040FE8FC09C2C20
:1028A000821418F42C0C922C981844FE91C0B70195
:1028B00080E390E00E94141542FE09C088E790E092
:1028C00041FE02C088E590E0B7010E941415C914CA
:1028D00008F48AC0CA94D12C9FEFC91AD90ACA0C2D
:1028E000DB1CF60182916F01B70190E00E94141584
:1028F000AC14BD04B1F74FCF60817181072E000C7D
:10290000880B990B0E5F1F4F92CFD32CE894D4F80D
:102910002AE030E0853739F1232D297FD22E8F36FA
:1029200001F148F48835A9F0F701868197812B964B
:10293000E2E10C94D415803749F08837A9F7D4FE2A
:1029400002C06894D2F820E130E00DC06894D4F859
:10295000F6CF34FE03C0822F8660D82E20E132E00D
:1029600002C028E030E0F801D7FE0FC0608171811D
:10297000828193810C5F1F4FA5010E944415C82ED0
:10298000CA183D2CE89437F867CF6081718190E0D8
:1029900080E00E5F1F4FF0CF42FC02C0839478CFDF
:1029A0008394839475CF842D867809F471CFF6CF04
:1029B000B70180E290E00E94141583948214C0F362
:1029C000512C73CF522C5818821408F46ECFF8CFC4
:1029D000842D867809F47BCF8BE241FE80E247FCB0
:1029E0008DE2B70190E071CFB70180E390E00E94E3
:1029F00014159A946CCF8FEF9FEF99CFFC0105903F
:102A0000615070400110D8F7809590958E0F9F1FF0
:102A10000895FC016150704001900110D8F7809535
:102A200090958E0F9F1F08950F931F93CF93DF9361
:102A3000182F092FEB018B8181FD09C01FEF0FEFCC
:102A4000812F902FDF91CF911F910F91089582FFD9
:102A500014C02E813F818C819D81281739073CF459
:102A6000E881F981CF0101969983888310838E8153
:102A70009F8101969F838E83E3CFE885F985812F1F
:102A80000995892BA1F3DACFFA01AA27283051F151
:102A9000203181F1E8946F936E7F6E5F7F4F8F4F8F
:102AA0009F4FAF4FB1E03ED0B4E03CD0670F781FEE
:102AB000891F9A1FA11D680F791F8A1F911DA11DD3
:102AC0006A0F711D811D911DA11D20D009F468940C
:102AD0003F912AE0269F11243019305D3193DEF6B4
:102AE000CF010895462F4770405D4193B3E00FD06A
:102AF000C9F7F6CF462F4F70405D4A3318F0495D55
:102B000031FD4052419302D0A9F7EACFB4E0A69537
:102B10009795879577956795BA95C9F70097610559
:102B2000710508959B01AC010A2E069457954795AF
:102B300037952795BA95C9F7620F731F841F951FA4
:102B4000A01D0895F999FECF92BD81BDF89A9927ED
:102B500080B50895262FF999FECF1FBA92BD81BD89
:102B600020BD0FB6F894FA9AF99A0FBE019608950F
:102B70002F923F924F925F926F927F928F929F928D
:102B8000AF92BF92CF92DF92EF92FF920F931F937B
:102B9000CF93DF93CDB7DEB7CA1BDB0B0FB6F8942C
:102BA000DEBF0FBECDBF09942A88398848885F846C
:102BB0006E847D848C849B84AA84B984C884DF80DD
:102BC000EE80FD800C811B81AA81B981CE0FD11DC1
:102BD0000FB6F894DEBF0FBECDBFED010895F89497
:102BE000FFCF0000380280000125303464004572B8
:102BF000414C004572496E0045724F740045724F5A
:102C00004C00496E554C004F50554C004C6F416480
:102C100000534554500049487500494C75004F48D1
:102C200075004F4C750053455475004F754C00743A
:0E2C30004F6E00744F46460064494646000051
:00000001FF
