:100000000C94A7000C94CF000C94CF000C94CF005C
:100010000C94CF000C94CF000C94CF000C94CF0024
:100020000C94CF000C94CF000C94CF000C94CF0014
:100030000C94CF000C94CF000C94CF000C94CF0004
:100040000C94AC070C94CF000C94CF000C94CF0010
:100050000C94CF000C94CF000C94CF000C94CF00E4
:100060000C94CF000C94CF00000000002300260069
:10007000290000000000240027002A0000000000E2
:10008000250028002B0004040404040404040202D4
:100090000202020203030303030302020301020438
:1000A00008102040800102040810200102040810FA
:1000B0002040804000000009000302000004050801
:1000C00000000000000000000000007E306D793369
:1000D0005B5F707F7B771F4E3D4F47000000000045
:1000E00000000000000000000000000000220000EE
:1000F0000000204E780000040100007E306D79334E
:100100005B5F707F7B00000000000000771F4E3DAA
:100110004F475E373038000E00157E6773055B0F62
:100120003E0000003B004E0078000802771F0D3DA6
:100130006F475E171038003000151D6773055B0FA1
:100140001C00000000000000000000004E0D112403
:100150001FBECFEFD8E0DEBFCDBF11E0A0E0B1E021
:10016000EEEEF8E202C005900D92AE35B107D9F778
:1001700022E0AEE5B1E001C01D92A034B207E1F784
:1001800010E0C7EAD0E004C02197FE010E94CD0F25
:10019000C63AD107C9F70E943B080C9475140C9419
:1001A0000000843081F028F48230E9F08330F9F0E7
:1001B0000895883071F0893091F08530B9F48091DC
:1001C00080008F7D03C0809180008F7780938000B6
:1001D00008958091B0008F778093B000089580914A
:1001E000B0008F7DF9CF84B58F7784BD089584B535
:1001F0008F7DFBCF1F93CF93DF93282F30E0F90142
:10020000EC54FF4F8491F901E356FF4FD491F9016B
:10021000EA57FF4FC491CC23A9F0162F81110E94F9
:10022000D100EC2FF0E0EE0FFF1FE458FF4FA59137
:10023000B4918FB7F894EC91111108C0D095DE23DA
:10024000DC938FBFDF91CF911F910895DE2BF8CF04
:10025000CF93DF9390E0FC01E356FF4F24918A5740
:100260009F4FFC0184918823D1F090E0880F991F63
:10027000FC01EE58FF4FA591B491FC01E458FF4FEB
:10028000C591D49161110EC09FB7F8948C91E22F63
:10029000E0958E238C932881E223E8839FBFDF9132
:1002A000CF9108958FB7F894EC91E22BEC938FBF28
:1002B000F6CF8E50806480937C0080917A008064B9
:1002C00080937A0080917A0086FDFCCF809178003F
:1002D000909179000895000000008330910528F086
:1002E000880F991F05970197F1F708956F927F92F4
:1002F0009F92BF92CF92DF92EF92FF921F93CF9384
:10030000DF937C01962E11E0C62ED12C81ED682E54
:1003100087E0782E8091FE01811708F40DC1C12F6E
:10032000D0E0123009F455C008F047C06091EA01EE
:100330008091EE01113009F449C0F701EC0FFD1F67
:100340003197B080B7FE4FC0B0FE06C06091EC019F
:100350008091F6010E94FA00B1FE06C06091EC01A6
:100360008091F7010E94FA00B2FE06C06091EC0194
:100370008091F8010E94FA00B3FE06C06091EC0182
:100380008091F9010E94FA00B4FE06C06091EC0170
:100390008091FA010E94FA00B5FE06C06091EC015E
:1003A0008091FB010E94FA00B6FE54C06091EC01FE
:1003B0008091FC010E94FA004DC0133079F06091E9
:1003C000EA018091F101143009F0B7CF0E94FA00E0
:1003D000B4CF6091EA018091EF01F8CF6091EA011A
:1003E0008091F001F3CFEB2DF0E0E553FF4FB49097
:1003F000B6FE06C06091EC018091F6010E94FA0001
:10040000B5FE06C06091EC018091F7010E94FA00F0
:10041000B4FE06C06091EC018091F8010E94FA00E0
:10042000B3FE06C06091EC018091F9010E94FA00D0
:10043000B2FE06C06091EC018091FA010E94FA00C0
:10044000B1FE06C06091EC018091FB010E94FA00B0
:10045000B0FCACCF2197C60102C095958795CA958F
:10046000E2F780FF08C0153030F46091EC01809114
:10047000FD010E94FA008091FF0190910002019617
:100480000E946B016091ED018091F6010E94FA00DB
:100490006091ED018091F7010E94FA006091ED01F9
:1004A0008091F8010E94FA006091ED018091F901BC
:1004B0000E94FA006091ED018091FA010E94FA0019
:1004C0006091ED018091FB010E94FA006091ED01C5
:1004D0008091FC010E94FA006091ED018091FD0184
:1004E0000E94FA001230F1F090F46091EB018091DB
:1004F000EE011130A1F08091FF0190910002930173
:10050000281B390BC9010E946B011F5F03CF1330F9
:1005100071F06091EB018091F101143061F70E945C
:10052000FA00E9CF6091EB018091EF01F8CF609183
:10053000EB018091F001F3CF8091F3018F3F29F41B
:100540009091F2019F3F09F44EC094FE0AC0609161
:10055000EA010E94FA006091EC018091F5010E948D
:10056000FA0095FE0CC06091EA018091F2010E94B0
:10057000FA006091EC018091F4010E94FA008091F0
:10058000FF019091000201960E946B016091EB01C6
:100590008091F3010E94FA006091ED018091F501D4
:1005A0000E94FA006091EB018091F2010E94FA0032
:1005B0006091ED018091F4010E94FA002091FF0109
:1005C0003091000281ED97E0821B930BDF91CF9178
:1005D0001F91FF90EF90DF90CF90BF909F907F9002
:1005E0006F900C946B01DF91CF911F91FF90EF9072
:1005F000DF90CF90BF909F907F906F9008953FB70E
:10060000F8948091E5019091E601A091E701B09105
:10061000E80126B5A89B05C02F3F19F00196A11D42
:10062000B11D3FBFBA2FA92F982F8827BC01CD013C
:10063000620F711D811D911D43E0660F771F881F9A
:10064000991F4A95D1F708950F931F93CF93DF9386
:10065000EC018B899C8981309105D9F030F00297AB
:10066000C1F000E010E098010AC00E94FF02088576
:1006700019852A853B85060F171F281F391F0883F8
:1006800019832A833B831A8ADF91CF911F910F919F
:1006900008952FB7F8948091380290913902A09173
:1006A0003A02B0913B022FBF0C811D812E813F8108
:1006B000080F191F2A1F3B1FE2CF0F931F93CF93E1
:1006C000DF93EC011C821D821E821F821886198610
:1006D0001A861B861C861D861E861F86198A188A06
:1006E0001A8A1E8E1D8E009136021091370281E00B
:1006F00090E00130110511F090E080E09093370216
:100700008093360282E090E09C8B8B8BCB01BA0108
:100710000E94700D6D8B7E8B8F8B988FCE010E9407
:1007200024030130110581F080913402909135024B
:10073000892B79F4D0933302C0933202D0933502DF
:10074000C093340218A21F8EDF91CF911F910F9199
:100750000895E0913202F0913302D0A3C78FD09375
:100760003302C0933202EECF0C942403CF92DF9277
:10077000EF92FF920F931F93CF93DF93EC016C8165
:100780007D818E819F812FB7F894C0903802D090E0
:100790003902E0903A02F0903B022FBF2B893C894E
:1007A0002115310539F023303105F8F060E070E0B3
:1007B000CB0112C0C884D984EA84FB840E94FF0262
:1007C000088119812A813B81C01AD10AE20AF30A01
:1007D0006C0D7D1D8E1D9F1DDF91CF911F910F917F
:1007E000FF90EF90DF90CF9008956C0D7D1D8E1DD2
:1007F0009F1DC880D980EA80FB806C197D098E0915
:100800009F09EACFCF92DF92EF92FF920F931F934F
:10081000CF93DF93EC01062F8B899C898130910562
:1008200091F1C0F0029779F1002329F0112319F01A
:10083000CE010E9424038D8D9E8D892B09F010E03E
:10084000812FDF91CF911F910F91FF90EF90DF905B
:10085000CF900895CE010E94B6036B017C0120E089
:1008600034E244E759E46D897E898F89988D0E942E
:10087000AD0D0E949E0F11E0C616D706E806F906D8
:1008800098F610E0D1CFCE010E94B6036B017C0137
:1008900020E030E04AE754E4E6CFCF93DF939C01B9
:1008A000FC01EC54FF4F8491F901E356FF4FD491C2
:1008B000F901EA57FF4FC491CC2379F081110E94CE
:1008C000D100EC2FF0E0EE0FFF1FE859FF4FA5918C
:1008D000B491EC91ED2381E009F480E0DF91CF91B8
:1008E000089560E00C942801CF93DF93C091DE015E
:1008F000D091DF018FE00E945901C81BD90BD7FFAF
:1009000003C0D195C195D10981E040916601509114
:1009100067014C175D070CF080E0DF91CF910895DF
:1009200080E10E94590121E040916C0150916D01DC
:10093000841795070CF020E0822F08958FE00E9425
:10094000590120916E0130916F01281739075CF42D
:100950008FE00E94590121E0409170015091710196
:10096000841795070CF020E0822F08958EE00E94F6
:1009700059012091720130917301281739075CF4F5
:100980008EE00E94590121E040917401509175015F
:10099000841795070CF020E0822F08950E94B6047A
:1009A000882329F00E949E0481110C94900480E019
:1009B00008950F931F93CF93DF9300D000D01F9221
:1009C000CDB7DEB79F938F9386E091E09F938F938F
:1009D0008E010F5F1F4F1F930F930E94D41160E091
:1009E000C8010E9476010F900F900F900F900F900A
:1009F0000F900F900F900F900F900F90DF91CF916D
:100A00001F910F91089580917801909179010C9434
:100A1000D9040F931F93CF93DF93EC0188819981C1
:100A2000009759F02A813B812617370730F081E083
:100A3000DF91CF911F910F9108958B016F5F7F4FD1
:100A40000E94F810009759F0998388831B830A83CA
:100A50002C813D81232B59F7FC011082E8CF80E0E7
:100A6000E7CFCF93DF93EC0188819981009711F054
:100A70000E946F10198218821D821C821B821A82AA
:100A8000DF91CF910895EF92FF920F931F93CF9331
:100A9000DF93EC017B018A01BA010E9409058111F3
:100AA0000BC0CE010E943105CE01DF91CF911F9185
:100AB0000F91FF90EF9008951D830C83B7018881FB
:100AC00099810E94BE11F0CFFC01808191810C942C
:100AD0006F10FC011182108213821282158214821F
:100AE000FB0101900020E9F73197AF01461B570B3E
:100AF0000C9443051F93CF93DF93EC01162F0E94B4
:100B00006B0E181739F0612FCE01DF91CF911F9135
:100B10000C94730EDF91CF911F9108958F929F9245
:100B2000BF92CF92DF92EF92FF920F931F93CF93DA
:100B3000DF93CDB7DEB728970FB6F894DEBF0FBEB0
:100B4000CDBF8C01B62ECDB6DEB6FC018481958179
:100B500004970CF04AC01A8219821C821B821E82E2
:100B60001D8280E18F831886BE01695F7F4FFB0184
:100B700001900020E9F73197AF01461B570BCE01DA
:100B800001960E944305F8018080918081149104B0
:100B900009F45EC0E480F580E114F104B9F08D81C0
:100BA0009E81E80EF91EB701CE0101960E9409054B
:100BB000882309F44DC029813A818D819E81B40139
:100BC000820F931F0E94BE11FE82ED8269817A819D
:100BD0006115710509F441C04D815E81C8010E9413
:100BE0004305CE0101960E946405F801E480F5807A
:100BF000C70101962DB73EB7281B390B0FB6F894E5
:100C00003EBF0FBE2DBFEDB7FEB731964F01892B0A
:100C100021F0E114F10429F510826B2DC4010E942A
:100C200076010FB6F894DEBE0FBECDBE28960FB685
:100C3000F894DEBF0FBECDBFDF91CF911F910F9112
:100C4000FF90EF90DF90CF90BF909F908F9008958E
:100C5000CE0101960E943105B9CFC8010E9431052D
:100C6000C0CFF80160817181A701C4010E94C51144
:100C7000F401EE0DFF1DD0CFFF920F931F93CF9382
:100C8000DF9300D000D000D0CDB7DEB7F82E809132
:100C90006501811107C08BE791E00E94240381E088
:100CA0008093650180916401F11050C1811103C0EE
:100CB00081E08093640161E08BE791E00E9402048F
:100CC000882309F457C080916201909163010697CF
:100CD00009F047C0EEEAF0E06491E7E9F0E0E49162
:100CE000F0E0EE0FFF1FE859FF4F8591949100E26D
:100CF00011EA27E030E0462F0E94F60761157105E2
:100D00008105910591F06F5F7F4F8F4F9F4F24E0DA
:100D1000660F771F881F991F2A95D1F733E09695A4
:100D20008795779567953A95D1F70E94720D9B014B
:100D3000AC010E94B90E9B01AC0160E074E284E753
:100D400099E40E94250F29EB3FE840E65FE30E940B
:100D5000AD0D60935E0170935F018093600190938D
:100D6000610180916201909163010196909363010A
:100D7000809362018091620190916301FF20A1F054
:100D8000009709F0B1C06EE171E0CE0101960E94BA
:100D9000690570E060E0CE0101960E948E05CE01EB
:100DA00001960E94640540C08F3F980749F70E9452
:100DB000B60481110AC00E949E04811106C00E94DF
:100DC00090046AE071E0882301F30E94B604811167
:100DD00010C06FE071E0CE0101960E94690570E0DD
:100DE00060E0CE0101960E948E05CE0101960E9420
:100DF00064050E949E04811110C064E171E0CE017F
:100E000001960E94690570E060E0CE0101960E94A3
:100E10008E05CE0101960E9464050E94900469E14E
:100E200071E0882309F4B1CF809162019091630150
:100E30008230910509F061C063E271E0CE01019654
:100E40000E94690570E060E0CE0101960E948E0567
:100E5000CE0101960E946405809162019091630128
:100E60008430910509F052C068E271E0CE0101962C
:100E70000E94690570E060E0CE0101960E948E0537
:100E8000CE0101960E9464058091620190916301F8
:100E90008630910509F043C06DE271E0CE01019604
:100EA0000E94690564E070E0CE0101960E948E0503
:100EB000CE0101960E9464058091620190916301C8
:100EC000089731F4FF20D9F110926301109262016A
:100ED00026960FB6F894DEBF0FBECDBFDF91CF913F
:100EE0001F910F91FF900895019709F09DCF8EE01B
:100EF0000E9459010E94D90497CF039709F0ACCF03
:100F00008FE00E9459010E94D904A6CF059709F0ED
:100F1000BBCF80E10E9459010E94D904B5CF079749
:100F200059F660915E0170915F018091600190912E
:100F300061010E94970FCB010E94D904BDCF8FEFB2
:100F40009FEF9093630180936201C2CF882309F4DD
:100F5000B2CE10926401AFCE1F920F920FB60F92D5
:100F600011242F933F938F939F93AF93BF938091BF
:100F7000380290913902A0913A02B0913B0230912F
:100F8000E40126E0230F2D3768F129E8230F0396AB
:100F9000A11DB11D2093E401809338029093390282
:100FA000A0933A02B0933B028091E5019091E60153
:100FB000A091E701B091E8010196A11DB11D8093B8
:100FC000E5019093E601A093E701B093E801BF919A
:100FD000AF919F918F913F912F910F900FBE0F90E6
:100FE0001F9018950296A11DB11DD4CFCF92DF920C
:100FF000EF92FF920F931F93E82FF92F05C0015036
:1010000011092109310961F1908196239417B9F3EF
:1010100005C0015011092109310911F19081962370
:101020009413F7CFC12CD12CE12CF12C0AC08FEFF7
:10103000C81AD80AE80AF80A0C151D052E053F053E
:1010400079F080818623841791F36C2D7D2D8E2D70
:101050009F2D1F910F91FF90EF90DF90CF900895FB
:1010600060E070E080E090E01F910F91FF90EF90C2
:10107000DF90CF900895CF93DF9300D000D000D0C1
:10108000CDB7DEB7789484B5836084BD85B58360C1
:1010900085BD80916E00816080936E0032E0309358
:1010A0008100809181008160809381008091800027
:1010B0008160809380008091B10084608093B10052
:1010C0008091B00081608093B00086E880937A00C0
:1010D0001092C10024E02093FE01B8E0B093EE012D
:1010E000A9E0A093EF01FAE0F093F001EBE0E093C8
:1010F000F1019FEF9093F2019093F3011092F601AA
:1011000081E08093F7013093F80173E07093F90167
:101110002093FA0165E06093FB0156E05093FC01D7
:1011200047E04093FD019093F4019093F5011092F4
:10113000E9011092EA018093EB018093EC01109297
:10114000ED01B0930102A0930202F0930302E09339
:1011500004021092050280930602309307027093F6
:1011600008022093090260930A0250930B024093F5
:101170000C0210E08091FE01181798F4812F90E086
:101180009C0127513E4F79016091EB01F901808D5F
:101190000E94FA0061E0F701808D0E9428011F5F24
:1011A000E9CF09EE11E071EFE72E71E0F72E6091C3
:1011B000ED01F801848D0E94FA0061E0F801848D50
:1011C0000E9428010F5F1F4FE016F10681F7809102
:1011D000F3018F3FA1F06091EB010E94FA0061E002
:1011E0008091F3010E9428016091ED018091F50149
:1011F0000E94FA0061E08091F5010E94280180912F
:10120000F2018F3FA1F06091EB010E94FA0061E0D2
:101210008091F2010E9428016091ED018091F4011A
:101220000E94FA0061E08091F4010E94280180EDA3
:1012300097E0909300028093FF018CE090E00E9481
:10124000710482E190E00E94710483E190E00E94C9
:1012500071048EE090E00E9471048FE090E00E94A3
:10126000710480E190E00E94710481E190E00E94AD
:10127000710461E084E10E94280161E085E10E943F
:10128000280161E08DE00E94280180E392E09093C4
:1012900075018093740180EE91E0909373018093C7
:1012A000720184E492E0909371018093700184EA6A
:1012B00091E090936F0180936E0180E092E09093B3
:1012C000DF018093DE0180E293E090936D018093D3
:1012D0006C0183E090E090936B0180936A0110921F
:1012E00069011092680185E090E090936701809316
:1012F000660180E090E0A0E4B0E48093D201909396
:10130000D301A093D401B093D5018DEB91E00E945D
:10131000B4031092B1011092B2011092B301109275
:10132000B4018CE991E00E94B4038DEB91E00E943E
:1013300024038CE991E00E942403BB24B39450E081
:10134000E52E50E0F52EAA24A39469E0C62ED12CF8
:101350008CE090E00E944D04882309F49BC08CE04F
:1013600090E00E944D048B2590917601891392C0E4
:101370008CE090E00E944D04809376010091E001A2
:101380001091E1010F5F1F4F1093E1010093E00105
:101390008BE791E00E9424030115110509F0C9C1F2
:1013A0008091780190917901909367018093660113
:1013B0000530110509F0DCC1809178019091790127
:1013C00090936F0180936E018091DE019091DF0117
:1013D0009093790180937801609174017091750107
:1013E00077FF02C06F5F7F4F7595679590E080E053
:1013F0000E947A05609172017091730177FF02C0BB
:101400006F5F7F4F7595679581E090E00E947A0548
:10141000609170017091710177FF02C06F5F7F4F23
:101420007595679582E090E00E947A0560916E0163
:1014300070916F0177FF02C06F5F7F4F7595679561
:1014400083E090E00E947A056091DE017091DF01F7
:1014500077FF02C06F5F7F4F7595679584E090E0DE
:101460000E947A0560916C0185E090E00E947A0507
:1014700060916A0186E090E00E947A0560916801BF
:1014800087E090E00E947A056091660188E090E034
:101490000E947A058CE090E00E944D04811106C004
:1014A0008CE090E00E944D048093760182E190E010
:1014B0000E944D048823C1F082E190E00E944D0417
:1014C0008B259091770189130FC082E190E00E94F3
:1014D0004D04809377018091780190917901019674
:1014E000909379018093780182E190E00E944D040D
:1014F000811106C082E190E00E944D048093770143
:1015000083E190E00E944D048823C1F083E190E0E4
:101510000E944D048B2590917A0189130FC083E1BD
:1015200090E00E944D0480937A018091780190911F
:1015300079010197909379018093780183E190E09C
:101540000E944D04811106C083E190E00E944D0489
:1015500080937A018091E301882309F43BC2809152
:10156000E0019091E10162E371E0009709F49BC111
:10157000019761F460E08BE791E00E94020467E369
:1015800071E0882309F48FC10E9403058091E00176
:101590009091E101029751F460E08BE791E00E94A5
:1015A0000204882309F48EC10E9403058091E001A2
:1015B0009091E101039751F460E08BE791E00E9484
:1015C0000204882309F48FC10E9403058091E00181
:1015D0009091E101049751F460E08BE791E00E9463
:1015E0000204882309F490C10E9403058091E00160
:1015F0009091E101059751F460E08BE791E00E9442
:101600000204882309F491C10E9403058091E0013E
:101610009091E101069751F460E08BE791E00E9420
:101620000204882309F492C10E9403058091E0011D
:101630009091E101079751F460E08BE791E00E94FF
:101640000204882309F493C10E9403058091E001FC
:101650009091E101089751F460E08BE791E00E94DE
:101660000204882309F494C10E9403058091E001DB
:101670009091E101099751F460E08BE791E00E94BD
:101680000204882309F495C10E9403058091E001BA
:101690009091E1010A9724F01092E1011092E0018B
:1016A0008091E0019091E10197FF04C0D092E101A7
:1016B000C092E0018CE090E00E944D048823D9F0B4
:1016C00082E190E00E944D048823A9F083E190E03C
:1016D0000E944D04882379F08091E20181110BC0B2
:1016E0008091E3018B258093E301A092E2011092A7
:1016F000E1011092E0018CE090E00E944D04811124
:1017000011C082E190E00E944D0481110BC083E181
:1017100090E00E944D04811105C08091E201811189
:101720001092E201E114F10409F412CE0E940000CB
:101730000FCE0130110549F480917401909175012B
:10174000909379018093780133CE0230110501F531
:101750008091780190917901909375018093740143
:101760008091720190917301909379018093780137
:101770000630110501F580917801909179019093DF
:10178000DF018093DE0180916C0190916D0120CE8C
:101790000330110509F580917801909179019093BA
:1017A0007301809372018091700190917101909307
:1017B0007901809378010730110509F04AC08091C2
:1017C00078019091790190936D0180936C018091E3
:1017D0006A0190916B01FCCD0430110509F0E8CD50
:1017E00080917801909179019093710180937001BB
:1017F00080916E0190916F019093790180937801AF
:101800000930110509F0E8CD6091780170917901F6
:1018100070936901609368018091660190916701FE
:101820009093790180937801072E000C880B990B17
:101830000E94700D6093B1017093B2018093B30167
:101840009093B4018CE991E00E94B4038CE991E09B
:1018500027C008301105A1F66091780170917901D7
:1018600070936B0160936A018091680190916901A6
:101870009093790180937801072E000C880B990BC7
:101880000E94700D6093D2017093D3018093D401B4
:101890009093D5018DEB91E00E94B4038DEB91E024
:1018A0000E94240399CDCE0101960E94690570E043
:1018B00060E0CE0101960E948E05CE0101960E9445
:1018C000640564CE6BE371E0CE0101960E94690568
:1018D00070E060E0CE0101960E948E05CE01019677
:1018E0000E94640563CE6FE371E0CE0101960E9411
:1018F000690570E060E0CE0101960E948E05CE0180
:1019000001960E94640562CE63E471E0CE01019607
:101910000E94690570E060E0CE0101960E948E058C
:10192000CE0101960E94640561CE67E471E0CE01AC
:1019300001960E94690570E060E0CE0101960E9468
:101940008E05CE0101960E94640560CE6CE471E0C4
:10195000CE0101960E94690570E060E0CE0101961B
:101960000E948E05CE0101960E9464055FCE60E55F
:1019700071E0CE0101960E94690570E060E0CE0141
:1019800001960E948E05CE0101960E9464055ECEEE
:1019900064E571E0CE0101960E94690570E060E0A7
:1019A000CE0101960E948E05CE0101960E9464052B
:1019B0005DCE69E571E0CE0101960E94690570E097
:1019C00060E0CE0101960E948E05CE0101960E9434
:1019D00064055CCE8FE00E9459010091DE011091F8
:1019E000DF01801791076CF40E947404882349F08A
:1019F0000E94B604882329F00E94900461E08111BE
:101A000001C060E084E10E94FA008FE00E94590169
:101A1000081719070CF160E085E10E94FA000E94A6
:101A2000CE049091E301882329F181E0992329F1E3
:101A30000E94CE0460E0882319F18DEB91E00E94B2
:101A40000204882321F061E08DE00E94FA008CE915
:101A500091E00E9424032ECE0E9474048823D9F2C0
:101A60000E94B6048823B9F20E949004882399F258
:101A700061E0D2CF9111DCCF80E00E943C06D8CF4C
:101A80008CE991E00E940204882309F413CE60E0FF
:101A90008DE00E94FA008DEB91E0DBCF10923102D5
:101AA00041E050E060E070E08BE791E00E945D0370
:101AB00040916A0150916B01052E000C660B770B6B
:101AC0008DEB91E00E945D034091680150916901A6
:101AD000052E000C660B770B8CE991E00C945D03EE
:101AE000E89409C097FB3EF49095809570956195B8
:101AF0007F4F8F4F9F4F9923A9F0F92F96E9BB276E
:101B00009395F695879577956795B795F111F8CFE9
:101B1000FAF4BB0F11F460FF1BC06F5F7F4F8F4F54
:101B20009F4F16C0882311F096E911C0772321F04A
:101B30009EE8872F762F05C0662371F096E8862FE2
:101B400070E060E02AF09A95660F771F881FDAF739
:101B5000880F9695879597F908950E94C00D0C946B
:101B6000310E0E94230E38F00E942A0E20F0952399
:101B700011F00C941A0E0C94200E11240C94650E86
:101B80000E94420E70F3959FC1F3950F50E0551FD0
:101B9000629FF001729FBB27F00DB11D639FAA27C2
:101BA000F00DB11DAA1F649F6627B00DA11D661F11
:101BB000829F2227B00DA11D621F739FB00DA11D32
:101BC000621F839FA00D611D221F749F3327A00DEC
:101BD000611D231F849F600D211D822F762F6A2F88
:101BE00011249F5750409AF0F1F088234AF0EE0FED
:101BF000FF1FBB1F661F771F881F91505040A9F71A
:101C00009E3F510580F00C941A0E0C94650E5F3FB8
:101C1000E4F3983ED4F3869577956795B795F79555
:101C2000E7959F5FC1F7FE2B880F911D96958795CD
:101C300097F9089597F99F6780E870E060E008954C
:101C40009FEF80EC089500240A94161617061806D4
:101C50000906089500240A941216130614060506B0
:101C60000895092E0394000C11F4882352F0BB0F41
:101C700040F4BF2B11F460FF04C06F5F7F4F8F4FA4
:101C80009F4F089557FD9058440F551F59F05F3FDF
:101C900071F04795880F97FB991F61F09F3F79F08E
:101CA00087950895121613061406551FF2CF469510
:101CB000F1DF08C0161617061806991FF1CF869592
:101CC0007105610508940895E894BB276627772776
:101CD000CB0197F90895F999FECF92BD81BDF89A8D
:101CE000992780B50895262FF999FECF1FBA92BD86
:101CF00081BD20BD0FB6F894FA9AF99A0FBE0196ED
:101D000008952F923F924F925F926F927F928F929F
:101D10009F92AF92BF92CF92DF92EF92FF920F937A
:101D20001F93CF93DF93CDB7DEB7CA1BDB0B0FB684
:101D3000F894DEBF0FBECDBF09942A883988488841
:101D40005F846E847D848C849B84AA84B984C884D7
:101D5000DF80EE80FD800C811B81AA81B981CE0FCE
:101D6000D11D0FB6F894DEBF0FBECDBFED010895B3
:101D70005058BB27AA270E94D00E0C94310E0E9407
:101D8000230E38F00E942A0E20F039F49F3F19F4F8
:101D900026F40C94200E0EF4E095E7FB0C941A0E3A
:101DA000E92F0E94420E58F3BA176207730784079F
:101DB000950720F079F4A6F50C94640E0EF4E095E6
:101DC0000B2EBA2FA02D0B01B90190010C01CA01F5
:101DD000A0011124FF27591B99F0593F50F4503EA0
:101DE00068F11A16F040A22F232F342F4427585F92
:101DF000F3CF469537952795A795F0405395C9F7AA
:101E00007EF41F16BA0B620B730B840BBAF0915061
:101E1000A1F0FF0FBB1F661F771F881FC2F70EC000
:101E2000BA0F621F731F841F48F4879577956795D3
:101E3000B795F7959E3F08F0B0CF9395880F08F0BF
:101E40009927EE0F9795879508950E94390F0C9466
:101E5000310E0E942A0E58F00E94230E40F029F401
:101E60005F3F29F00C941A0E51110C94650E0C94DE
:101E7000200E0E94420E68F39923B1F3552391F38B
:101E8000951B550BBB27AA2762177307840738F0E9
:101E90009F5F5F4F220F331F441FAA1FA9F335D046
:101EA0000E2E3AF0E0E832D091505040E695001CFA
:101EB000CAF72BD0FE2F29D0660F771F881FBB1FB4
:101EC000261737074807AB07B0E809F0BB0B802D92
:101ED000BF01FF2793585F4F3AF09E3F510578F0BE
:101EE0000C941A0E0C94650E5F3FE4F3983ED4F305
:101EF000869577956795B795F7959F5FC9F7880F92
:101F0000911D9695879597F90895E1E0660F771FE3
:101F1000881FBB1F621773078407BA0720F0621B74
:101F2000730B840BBA0BEE1F88F7E09508950E949F
:101F30009E0F6894B1110C94650E08950E944A0E8C
:101F400088F09F5798F0B92F9927B751B0F0E1F07A
:101F5000660F771F881F991F1AF0BA95C9F714C02A
:101F6000B13091F00E94640EB1E008950C94640EBB
:101F7000672F782F8827B85F39F0B93FCCF3869563
:101F800077956795B395D9F73EF4909580957095C0
:101F900061957F4F8F4F9F4F0895EE0FFF1F059064
:101FA000F491E02D09940F931F93CF93DF93823028
:101FB000910510F482E090E0E0913E02F0913F0242
:101FC00030E020E0B0E0A0E0309799F42115310531
:101FD00009F44AC0281B390B24303105D8F58A8111
:101FE0009B816115710589F1FB0193838283FE0159
:101FF00011C0408151810281138148175907E0F0D7
:102000004817590799F4109761F012960C9312979C
:1020100013961C933296CF01DF91CF911F910F91B0
:10202000089500933E0210933F02F4CF211531052D
:1020300051F04217530738F0A901DB019A01BD01A5
:10204000DF01F801C1CFEF01F9CF90933F028093F8
:102050003E02CDCFFE01E20FF31F819391932250F8
:10206000310939832883D7CF20913C0230913D023A
:10207000232B41F4209102013091030130933D0262
:1020800020933C022091000130910101211531057E
:1020900041F42DB73EB74091040150910501241B36
:1020A000350BE0913C02F0913D02E217F307A0F4FA
:1020B0002E1B3F0B2817390778F0AC014E5F5F4F9E
:1020C0002417350748F04E0F5F1F50933D02409391
:1020D0003C02819391939FCFF0E0E0E09CCFCF93BF
:1020E000DF930097E9F0FC01329713821282A091EE
:1020F0003E02B0913F02ED0130E020E01097A1F4E4
:1021000020813181820F931F20913C0230913D024A
:102110002817390709F061C0F0933D02E0933C02B3
:10212000DF91CF910895EA01CE17DF07E8F54A81E4
:102130005B819E0141155105B1F7E901FB83EA83FB
:1021400049915991C40FD51FEC17FD0761F48081A7
:1021500091810296840F951FE9019983888382817A
:1021600093819B838A83F0E0E0E012968D919C91AD
:1021700013970097B9F52D913C911197CD010296D7
:10218000820F931F20913C0230913D02281739079E
:1021900039F6309751F510923F0210923E02B093FB
:1021A0003D02A0933C02BCCFD383C28340815181C6
:1021B000840F951FC817D90761F44E5F5F4F888160
:1021C0009981480F591F518340838A819B81938352
:1021D00082832115310509F0B0CFF0933F02E093DF
:1021E0003E029ECFFD01DC01C0CF13821282D7CF09
:1021F000B0E0A0E0EEEFF0E10C94830E8C010097CC
:1022000051F4CB010E94D30F8C01C801CDB7DEB7CA
:10221000E0E10C949F0EFC01E60FF71F9C01225099
:102220003109E217F30708F49DC0D901CD91DC9183
:102230001197C617D70798F0C530D10530F3CE01F6
:1022400004978617970708F3C61BD70B2297C193ED
:10225000D1936D937C93CF010E946F10D6CF5B0119
:10226000AC1ABD0A4C018C0E9D1EA0913E02B0918D
:102270003F02512C412CF12CE12C109731F580912B
:102280003C0290913D028815990509F05CC0461604
:10229000570608F058C08091000190910101009705
:1022A00041F48DB79EB74091040150910501841B04
:1022B000950BE817F90708F055C0F0933D02E0933D
:1022C0003C02F90171836083A0CF8D919C9111979D
:1022D00012966C90129713967C901397A815B905D7
:1022E00059F56C0142E0C40ED11CCA14DB0420F184
:1022F000AC014A195B09DA011296159780F06282E7
:10230000738251834083D9016D937C93E114F1046E
:1023100071F0D7011396FC93EE93129776CF229625
:102320008C0F9D1FF90191838083F301EFCFF09310
:102330003F02E0933E0269CF4816590608F42C018B
:102340007D01D3019ACFCB010E94D30F7C0100976E
:1023500049F0AE01B8010E94B511C8010E946F108A
:10236000870153CF10E000E050CFFB01DC0102C039
:1023700001900D9241505040D8F70895FB01DC01C7
:1023800001900D920020E1F70895FB01DC0141501E
:10239000504048F001900D920020C9F701C01D92F5
:1023A00041505040E0F70895AEE0B0E0EAEDF1E1D1
:1023B0000C948F0E0D891E8986E08C831A83098305
:1023C0008FEF9FE79E838D83AE01475E5F4F6F89DE
:1023D000788DCE0101960E94F7112F813885020F6A
:1023E000131FF80110822E96E4E00C94AB0EABE0C4
:1023F000B0E0EDEFF1E10C94810E7C013B018A012C
:10240000FC0117821682838181FFC8C1CE0101962B
:102410005C01F7019381F30193FD859193FF819115
:102420003F01882309F453C1853239F493FD859126
:1024300093FF81913F01853229F4B70190E00E941A
:10244000E713E7CF912C212C312CFFE1F31538F065
:102450008B3211F190F4803209F1833229F137FC8B
:102460003CC020ED280F2A3050F536FE20C08AE00F
:10247000989E200D1124922E06C08D3291F080334B
:1024800071F7689430F8F30193FD859193FF819182
:102490003F018111DACF21C0689431F8689432F895
:1024A000F2CF689433F8EFCF689434F8ECCFEAE0D9
:1024B0002E9E200D1124222E689435F8E4CF8E3202
:1024C00029F436FC04C1689436F8DDCF8C3619F453
:1024D000689437F8D8CF8836B1F2982F9F7D9554FD
:1024E0009330E0F08336A1F18337C1F1833509F0F1
:1024F00063C02801F2E04F0E511CF801C080D1806A
:10250000692D70E036FC02C06FEF7FEFC6010E94BC
:10251000D1134C01689437F882010AC00C5F1F4F39
:10252000FFE3F98388248394912C6501E89437F8BC
:1025300033FE2DC0522C8114910471F5552009F4FD
:1025400068CFB70180E290E00E94E7135A94F6CF7B
:10255000F801808189830E5F1F4FE4CF2801F2E0EC
:102560004F0E511CF801C080D180692D70E036FCFF
:1025700002C06FEF7FEFC6010E94DC134C018201A5
:10258000D5CFB70180E290E00E94E7132A94281487
:10259000190409F0B0F7CECFF60137FC859137FE6C
:1025A00081916F01B70190E00E94E71351105A9496
:1025B000F1E08F1A9108BFCF843619F0893609F0FF
:1025C00077C0F80137FE6BC0608171818281938191
:1025D0000C5F1F4FF32DFF763F2E97FF09C090959C
:1025E0008095709561957F4F8F4F9F4F689437F816
:1025F0002AE030E0A5010E941714C82ECA188C2CBE
:10260000432C36FE0CC0E89440F8C91440F434FE64
:1026100005C032FC03C0F32DFE7E4F2E892C44FEF4
:1026200095C0FE01EC0DF11D8081803309F087C05B
:10263000242D297E422E842D8870582E43FC95C06F
:1026400040FE8FC09C2C821418F42C0C922C9818ED
:1026500044FE91C0B70180E390E00E94E71342FE80
:1026600009C088E790E041FE02C088E590E0B7012C
:102670000E94E713C91408F48AC0CA94D12C9FEFB2
:10268000C91AD90ACA0CDB1CF60182916F01B70185
:1026900090E00E94E713AC14BD04B1F74FCF608106
:1026A0007181072E000C880B990B0E5F1F4F92CF84
:1026B000D32CE894D4F82AE030E0853739F1232D83
:1026C000297FD22E8F3601F148F48835A9F0F70121
:1026D000868197812B96E2E10C949D0E803749F01C
:1026E0008837A9F7D4FE02C06894D2F820E130E020
:1026F0000DC06894D4F8F6CF34FE03C0822F8660F4
:10270000D82E20E132E002C028E030E0F801D7FE08
:102710000FC060817181828193810C5F1F4FA50181
:102720000E941714C82ECA183D2CE89437F867CFBA
:102730006081718190E080E00E5F1F4FF0CF42FC1E
:1027400002C0839478CF8394839475CF842D867848
:1027500009F471CFF6CFB70180E290E00E94E71351
:1027600083948214C0F3512C73CF522C58188214C6
:1027700008F46ECFF8CF842D867809F47BCF8BE2F6
:1027800041FE80E247FC8DE2B70190E071CFB701D6
:1027900080E390E00E94E7139A946CCF8FEF9FEF55
:1027A00099CFFC010590615070400110D8F78095D9
:1027B00090958E0F9F1F0895FC016150704001900D
:1027C0000110D8F7809590958E0F9F1F08950F9355
:1027D0001F93CF93DF93182F092FEB018B8181FD7E
:1027E00009C01FEF0FEF812F902FDF91CF911F9125
:1027F0000F91089582FF14C02E813F818C819D81AD
:10280000281739073CF4E881F981CF0101969983B3
:10281000888310838E819F8101969F838E83E3CF6F
:10282000E885F985812F0995892BA1F3DACFFA0183
:10283000AA27283051F1203181F1E8946F936E7FFF
:102840006E5F7F4F8F4F9F4FAF4FB1E03ED0B4E0F0
:102850003CD0670F781F891F9A1FA11D680F791F31
:102860008A1F911DA11D6A0F711D811D911DA11D42
:1028700020D009F468943F912AE0269F1124301952
:10288000305D3193DEF6CF010895462F4770405DED
:102890004193B3E00FD0C9F7F6CF462F4F70405D9C
:1028A0004A3318F0495D31FD4052419302D0A9F7F7
:1028B000EACFB4E0A6959795879577956795BA95F1
:1028C000C9F700976105710508959B01AC010A2EB7
:1028D00006945795479537952795BA95C9F7620F8E
:0E28E000731F841F951FA01D0895F894FFCF4D
:1028EE00000040028000253464004572414C0045D2
:1028FE0072496E0045724F740045724F4C00496E1E
:10290E005075004F757475004C6F416400467245EA
:10291E007100534554500049487500494C75004F9D
:10292E004875004F4C750053455475004F754C005B
:0E293E00744F6E00744F4646006449464600D2
:00000001FF
