:020000040000FA
:100000000C94A7000C94CF000C94CF000C94CF005C
:100010000C94CF000C94CF000C94CF000C94CF0024
:100020000C94CF000C94CF000C94CF000C94CF0014
:100030000C94CF000C94CF000C94CF000C94CF0004
:100040000C946E080C94CF000C94CF000C94CF004D
:100050000C94CF000C94CF000C94CF000C94CF00E4
:100060000C94CF000C94CF00000000002400270067
:100070002A0000000000250028002B0000000009D5
:10008000000302000004050800000000000000005A
:100090000000007E306D79335B5F707F7B771F4E91
:1000A0003D4F47000000000000000000000000007D
:1000B00000000000002200000000204E7800000434
:1000C0000100007E306D79335B5F707F7B00000044
:1000D00000000000771F4E3D4F475E373038000E5E
:1000E00000157E6773055B0F3E0000003B004E006D
:1000F00078000802771F0D3D6F475E1710380030FB
:1001000000151D6773055B0F1C0000000000000058
:100110000000000000000023002600290004040461
:1001200004040404040202020202020303030303A0
:1001300003020203010204081020408001020408A7
:10014000102001020408102040804000760E112487
:100150001FBECFEFD8E0DEBFCDBF11E0A0E0B1E021
:10016000E4E5FBE202C005900D92A836B107D9F78D
:1001700022E0A8E6B1E001C01D92A537B207E1F781
:1001800010E0C7EAD0E004C02197FE010E940011F0
:10019000C63AD107C9F70E941A090C94A8150C9405
:1001A0000000843081F028F48230E9F08330F9F0E7
:1001B0000895883071F0893091F08530B9F48091DC
:1001C00080008F7D03C0809180008F7780938000B6
:1001D00008958091B0008F778093B000089580914A
:1001E000B0008F7DF9CF84B58F7784BD089584B535
:1001F0008F7DFBCF1F93CF93DF93282F30E0F90142
:10020000E458FF4F8491F901EC5CFE4FD491F90161
:10021000E35EFE4FC491CC23A9F0162F81110E94FA
:10022000D100EC2FF0E0EE0FFF1FEE58FF4FA5912D
:10023000B4918FB7F894EC91111108C0D095DE23DA
:10024000DC938FBFDF91CF911F910895DE2BF8CF04
:10025000CF93DF9390E0FC01EC5CFE4F2491835E32
:100260009E4FFC0184918823D1F090E0880F991F64
:10027000FC01E859FF4FA591B491FC01EE58FF4FE6
:10028000C591D49161110EC09FB7F8948C91E22F63
:10029000E0958E238C932881E223E8839FBFDF9132
:1002A000CF9108958FB7F894EC91E22BEC938FBF28
:1002B000F6CF8E50806480937C0080917A008064B9
:1002C00080937A0080917A0086FDFCCF809178003F
:1002D000909179000895000000008330910528F086
:1002E000880F991F05970197F1F708956F927F92F4
:1002F0009F92BF92CF92DF92EF92FF921F93CF9384
:10030000DF937C01962E11E0C62ED12C81ED682E54
:1003100087E0782E80913702811708F40DC1C12F34
:10032000D0E0123009F455C008F047C060912302B4
:1003300080912702113009F449C0F701EC0FFD1F2D
:100340003197B080B7FE4FC0B0FE06C06091250265
:1003500080912F020E94FA00B1FE06C06091250232
:10036000809130020E94FA00B2FE06C06091250220
:10037000809131020E94FA00B3FE06C0609125020E
:10038000809132020E94FA00B4FE06C060912502FC
:10039000809133020E94FA00B5FE06C060912502EA
:1003A000809134020E94FA00B6FE54C0609125028A
:1003B000809135020E94FA004DC0133079F06091AF
:1003C000230280912A02143009F0B7CF0E94FA006C
:1003D000B4CF6091230280912802F8CF609123026C
:1003E00080912902F3CFEB2DF0E0ED56FF4FB49052
:1003F000B6FE06C06091250280912F020E94FA008D
:10040000B5FE06C060912502809130020E94FA007C
:10041000B4FE06C060912502809131020E94FA006C
:10042000B3FE06C060912502809132020E94FA005C
:10043000B2FE06C060912502809133020E94FA004C
:10044000B1FE06C060912502809134020E94FA003C
:10045000B0FCACCF2197C60102C095958795CA958F
:10046000E2F780FF08C0153030F4609125028091DA
:1004700036020E94FA00809138029091390201966A
:100480000E946B016091260280912F020E94FA0067
:1004900060912602809130020E94FA00609126024B
:1004A000809131020E94FA0060912602809132020E
:1004B0000E94FA0060912602809133020E94FA00A5
:1004C00060912602809134020E94FA006091260217
:1004D000809135020E94FA006091260280913602D6
:1004E0000E94FA001230F1F090F4609124028091A1
:1004F00027021130A1F080913802909139029301C6
:10050000281B390BC9010E946B011F5F03CF1330F9
:1005100071F06091240280912A02143061F70E94E8
:10052000FA00E9CF6091240280912802F8CF60910F
:10053000240280912902F3CF80912C028F3F29F46D
:1005400090912B029F3F09F44EC094FE0AC0609127
:1005500023020E94FA006091250280912E020E94DF
:10056000FA0095FE0CC06091230280912B020E943C
:10057000FA006091250280912D020E94FA0080917C
:1005800038029091390201960E946B016091240219
:1005900080912C020E94FA006091260280912E0226
:1005A0000E94FA006091240280912B020E94FA00BE
:1005B0006091260280912D020E94FA00209138025B
:1005C0003091390281ED97E0821B930BDF91CF913F
:1005D0001F91FF90EF90DF90CF90BF909F907F9002
:1005E0006F900C946B01DF91CF911F91FF90EF9072
:1005F000DF90CF90BF909F907F906F9008953FB70E
:10060000F89480911E0290911F02A0912002B09157
:10061000210226B5A89B05C02F3F19F00196A11D08
:10062000B11D3FBFBA2FA92F982F8827BC01CD013C
:10063000620F711D811D911D43E0660F771F881F9A
:10064000991F4A95D1F708950F931F93CF93DF9386
:10065000EC018B899C8981309105D9F030F00297AB
:10066000C1F000E010E098010AC00E94FF02088576
:1006700019852A853B85060F171F281F391F0883F8
:1006800019832A833B831A8ADF91CF911F910F919F
:1006900008952FB7F89480916D0290916E02A09109
:1006A0006F02B09170022FBF0C811D812E813F819E
:1006B000080F191F2A1F3B1FE2CF0C9424030F932E
:1006C0001F93CF93DF93EC011C821D821E821F8239
:1006D000188619861A861B861C861D861E861F860E
:1006E000198A188A1A8A1E8E1D8E00916B0210912B
:1006F0006C0281E090E00130110511F090E080E0A3
:1007000090936C0280936B0282E090E09C8B8B8BC9
:10071000CB01BA010E94E70E6D8B7E8B8F8B988F79
:10072000CE010E9424030130110539F0CE01DF9182
:10073000CF911F910F910C94FD08DF91CF911F91E4
:100740000F910895CF92DF92EF92FF920F931F9334
:10075000CF93DF93EC016C817D818E819F812FB7D8
:10076000F894C0906D02D0906E02E0906F02F0900D
:1007700070022FBF2B893C892115310539F02330B8
:100780003105F8F060E070E0CB0112C0C884D98474
:10079000EA84FB840E94FF02088119812A813B813F
:1007A000C01AD10AE20AF30A6C0D7D1D8E1D9F1D31
:1007B000DF91CF911F910F91FF90EF90DF90CF903D
:1007C00008956C0D7D1D8E1D9F1DC880D980EA8007
:1007D000FB806C197D098E099F09EACFCF92DF92C9
:1007E000EF92FF920F931F93CF93DF93EC01062FAD
:1007F0008B899C898130910591F1C0F0029779F144
:10080000002329F0112319F0CE010E9424038D8DBD
:100810009E8D892B09F010E0812FDF91CF911F91E0
:100820000F91FF90EF90DF90CF900895CE010E943E
:10083000A2036B017C0120E034E244E759E46D89B6
:100840007E898F89988D0E94480F0E94CC1011E0FC
:10085000C616D706E806F90698F610E0D1CFCE0105
:100860000E94A2036B017C0120E030E04AE754E4DF
:10087000E6CFCF93DF939C01FC01E458FF4F8491B6
:10088000F901EC5CFE4FD491F901E35EFE4FC49197
:10089000CC2379F081110E94D100EC2FF0E0EE0F13
:1008A000FF1FED5EFE4FA591B491EC91ED2381E029
:1008B00009F480E0DF91CF91089560E00C94280165
:1008C000CF92DF92EF92FF92CF93DF93CAE0D0E016
:1008D00083E10E945901BC01990F880B990B0E947A
:1008E000E90E22EB3DE94FEA5EE30E94480FA701C3
:1008F00096010E94FB1018168CF483E10E945901A6
:10090000BC01990F880B990B0E94E90E22EB3DE97F
:100910004FEA5EE30E94480F6B017C012197C1F60C
:10092000C701B6010E94C5107093710160937001F8
:10093000DF91CF91FF90EF90DF90CF900895CF920D
:10094000DF92EF92FF92CF93DF93CAE0D0E082E193
:100950000E945901BC01990F880B990B0E94E90E66
:1009600022EB3DE94FEA5EE30E94480FA7019601A2
:100970000E94FB1018168CF482E10E945901BC0100
:10098000990F880B990B0E94E90E22EB3DE94FEA83
:100990005EE30E94480F6B017C012197C1F6C701FD
:1009A000B6010E94C5107093F7016093F601DF91C4
:1009B000CF91FF90EF90DF90CF900895CF92DF928C
:1009C000EF92FF92CF93DF93CAE0D0E081E10E94E3
:1009D0005901BC01990F880B990B0E94E90E22EB7B
:1009E0003DE94FEA5EE30E94480FA70196010E948D
:1009F000FB1018168CF481E10E945901BC01990F7B
:100A0000880B990B0E94E90E22EB3DE94FEA5EE369
:100A10000E94480F6B017C012197C1F6C701B60106
:100A20000E94C5107093730160937201DF91CF91A2
:100A3000FF90EF90DF90CF9008952091F4013091D6
:100A4000F5018091F6019091F701281B390B37FFD2
:100A500003C031952195310981E040917C0150918D
:100A60007D01421753070CF080E0089581E040912A
:100A700070015091710120918201309183014217E0
:100A800053070CF080E008952091F6013091F701B2
:100A900080918401909185018217930744F481E04D
:100AA0004091860150918701241735070CF080E0B2
:100AB0000895209172013091730180918801909185
:100AC00089018217930744F481E040918A01509193
:100AD0008B01241735070CF080E008950E9459051A
:100AE000882329F00E94440581110C94360580E08A
:100AF00008950F931F93482FE4E4F1E06491EDE231
:100B0000F1E0E4918111462FF0E0EE0FFF1FED5E62
:100B1000FE4F8591949100E211EA27E030E00E94B7
:100B2000B808611571058105910591F06F5F7F4FE0
:100B30008F4F9F4F24E0660F771F881F991F2A95BC
:100B4000D1F733E096958795779567953A95D1F7E4
:100B50001F910F9108950F931F93CF93DF9300D0B0
:100B600000D01F92CDB7DEB79F938F9386E091E0C0
:100B70009F938F938E010F5F1F4F1F930F930E94C0
:100B8000071360E0C8010E9476010F900F900F904C
:100B90000F900F900F900F900F900F900F900F905D
:100BA000DF91CF911F910F91089580918E019091C7
:100BB0008F010C94AB050F931F93CF93DF93EC0140
:100BC00088819981009759F02A813B812617370740
:100BD00030F081E0DF91CF911F910F9108958B014B
:100BE0006F5F7F4F0E942B12009759F09983888383
:100BF0001B830A832C813D81232B59F7FC01108232
:100C0000E8CF80E0E7CFCF93DF93EC018881998133
:100C1000009711F00E94A211198218821D821C8275
:100C20001B821A82DF91CF910895EF92FF920F936A
:100C30001F93CF93DF93EC017B018A01BA010E94DD
:100C4000DB0581110BC0CE010E940306CE01DF91AE
:100C5000CF911F910F91FF90EF9008951D830C830A
:100C6000B701888199810E94F112F0CFFC011182B5
:100C700010821382128215821482FB0101900020DF
:100C8000E9F73197AF01461B570B0C941506FC0191
:100C9000808191810C94A211AF92BF92CF92DF928A
:100CA000EF92FF920F931F93CF93DF93CDB7DEB7F1
:100CB00028970FB6F894DEBF0FBECDBF8C01CDB61E
:100CC000DEB6FC018481958104970CF04AC01A823B
:100CD00019821C821B821E821D8280E18F831886EE
:100CE000BE01695F7F4FFB0101900020E9F731975A
:100CF000AF01461B570BCE0101960E941506F80165
:100D0000A080B180A114B10409F45DC0E480F58035
:100D1000E114F104B9F08D819E81E80EF91EB7014E
:100D2000CE0101960E94DB05882309F44CC029817D
:100D30003A818D819E81B501820F931F0E94F1122D
:100D4000FE82ED8269817A816115710509F440C0E6
:100D50004D815E81C8010E941506CE0101960E9458
:100D60004706F801E480F580C70101962DB73EB72C
:100D7000281B390B0FB6F8943EBF0FBE2DBFEDB741
:100D8000FEB731965F01892B21F0E114F10421F5C2
:100D9000108260E0C5010E9476010FB6F894DEBEB5
:100DA0000FBECDBE28960FB6F894DEBF0FBECDBFE6
:100DB000DF91CF911F910F91FF90EF90DF90CF9037
:100DC000BF90AF900895CE0101960E940306BACF5E
:100DD000C8010E940306C1CFF80160817181A7019B
:100DE000C5010E94F812F501EE0DFF1DD1CFFF9253
:100DF0000F931F93CF93DF9300D000D000D0CDB7D7
:100E0000DEB7F82E80917701811107C081E991E06A
:100E10000E94240381E08093770180917601F11094
:100E200041C1811103C081E08093760161E081E9D5
:100E300091E00E94EE03882309F448C000917401F8
:100E4000109175010E949F040E94DE040E946004BC
:100E50000630110561F581E00E9479056093680113
:100E60007093690180936A0190936B0180E00E9406
:100E70007905009168011091690120916A01309112
:100E80006B01600F711F821F931F0E94E90E9B016F
:100E9000AC0160E074E284E799E40E94531060932F
:100EA0006C0170936D0180936E0190936F010091BE
:100EB0007401109175010115110501F50E94DE0400
:100EC0000F5F1F4F1093750100937401809174019F
:100ED00090917501FF20F1F0009709F0AEC06EE12E
:100EE00071E0CE0101960E943606CE0101960E9465
:100EF0004C06CE0101960E94470645C002301105FE
:100F000019F40E949F04DCCF04301105C9F60E9439
:100F10006004D6CF8F3F9807F9F60E945905182F25
:100F20000E944405111116C0811106C00E943605A9
:100F30006AE071E08823A9F26FE071E0CE010196CA
:100F40000E943606CE0101960E944C06CE01019603
:100F50000E9447060E94440581110EC064E171E0C1
:100F6000CE0101960E943606CE0101960E944C06E3
:100F7000CE0101960E9447060E94360569E171E0A4
:100F8000882309F4AECF809174019091750182306D
:100F9000910509F05CC063E271E0CE0101960E9408
:100FA0003606CE0101960E944C06CE0101960E94A3
:100FB000470680917401909175018430910509F084
:100FC00050C068E271E0CE0101960E943606CE0163
:100FD00001960E944C06CE0101960E944706809120
:100FE0007401909175018630910509F044C06DE25D
:100FF00071E0CE0101960E943606CE0101960E9454
:101000004C06CE0101960E94470680917401909192
:101010007501089731F4FF20F1F1109275011092DB
:10102000740126960FB6F894DEBF0FBECDBFDF91D8
:10103000CF911F910F91FF900895019709F0A3CFD1
:1010400080917201909173010E94AB059CCF039730
:1010500009F0AFCF8091F6019091F7010E94AB05A6
:10106000A8CF059709F0BBCF8091700190917101D5
:101070000E94AB05B4CF079741F660916C01709167
:101080006D0180916E0190916F010E94C510CB019E
:101090000E94AB05BACF8FEF9FEF909375018093BD
:1010A0007401BFCF882309F4C1CE10927601BECE61
:1010B0001F93CF93DF93EC01162F0E940610181791
:1010C00039F0612FCE01DF91CF911F910C940E105A
:1010D000DF91CF911F9108950C9406101F920F92EB
:1010E0000FB60F9211242F933F938F939F93AF933B
:1010F000BF9380916D0290916E02A0916F02B091AA
:10110000700230911D0226E0230F2D3768F129E887
:10111000230F0396A11DB11D20931D0280936D0224
:1011200090936E02A0936F02B093700280911E02A2
:1011300090911F02A0912002B09121020196A11D61
:10114000B11D80931E0290931F02A0932002B093C2
:101150002102BF91AF919F918F913F912F910F905D
:101160000FBE0F901F9018950296A11DB11DD4CFF0
:10117000CF92DF92EF92FF920F931F93E82FF92FF8
:1011800005C0015011092109310961F190819623AF
:101190009417B9F305C0015011092109310911F162
:1011A000908196239413F7CFC12CD12CE12CF12CF4
:1011B0000AC08FEFC81AD80AE80AF80A0C151D05EC
:1011C0002E053F0579F080818623841791F36C2DDD
:1011D0007D2D8E2D9F2D1F910F91FF90EF90DF9011
:1011E000CF90089560E070E080E090E01F910F9153
:1011F000FF90EF90DF90CF90089520917A01309189
:101200007B01232B61F49093790180937801909373
:101210007B0180937A01FC0110A2178E0895E09162
:101220007801F091790190A3878F90937901809351
:101230007801F1CFCF93DF9300D000D000D0CDB7AD
:10124000DEB7789484B5836084BD85B5836085BD41
:1012500080916E00816080936E0022E02093810077
:101260008091810081608093810080918000816005
:10127000809380008091B10084608093B100809160
:10128000B00081608093B00086E880937A0010926D
:10129000C10034E030933702B9E0B09327023093B5
:1012A000280281E08093290220932A029FEF9093E5
:1012B0002B0290932C02A6E0A0932F0210923002F2
:1012C000F4E1F0933102E7E0E093320278E07093CA
:1012D000330265E16093340253E05093350245E0F8
:1012E0004093360290932D0290932E028093220217
:1012F00080932302109224021092250280932602EA
:10130000B0933A0230933B0280933C0220933D021B
:10131000A0933E0210923F02F0934002E0934102FC
:1013200070934202609343025093440240934502FB
:1013300010E080913702181798F4812F90E09C01FB
:101340002E5D3D4F790160912402F901808D0E944C
:10135000FA0061E0F701808D0E9428011F5FE9CF4C
:1013600002E212E08AE2E82E82E0F82E6091260284
:10137000F801848D0E94FA0061E0F801848D0E94DA
:1013800028010F5F1F4FE016F10681F780912C02B4
:101390008F3FA1F0609124020E94FA0061E08091E9
:1013A0002C020E9428016091260280912E020E9448
:1013B000FA0061E080912E020E94280180912B02A8
:1013C0008F3FA1F0609124020E94FA0061E08091B9
:1013D0002B020E9428016091260280912D020E941A
:1013E000FA0061E080912D020E94280180ED97E0D3
:1013F00090933902809338028DE090E00E945D0462
:101400008FE090E00E945D048EE090E00E945D0419
:1014100081E190E00E945D0482E190E00E945D0421
:1014200083E190E00E945D0480E190E00E945D0411
:1014300061E08CE00E94280161E08BE00E942801BD
:1014400061E08AE00E94280190E080E00E946C0840
:1014500090E0880F991F90938B0180938A0181E01F
:1014600090E00E946C0890E0880F991F909389018A
:101470008093880182E090E00E946C0890E0880FE1
:10148000991F909387018093860183E090E00E94EA
:101490006C0890E0880F991F9093850180938401D8
:1014A00084E090E00E946C0890E0880F991F909370
:1014B000F5018093F40185E090E00E946C0890E0D3
:1014C000909383018093820186E090E00E946C08F3
:1014D000082F90E0909381018093800187E090E055
:1014E0000E946C08182F90E090937F0180937E01FA
:1014F00088E090E00E946C0890E090937D018093DA
:101500007C01602F70E090E080E00E94E70E609325
:10151000E8017093E9018093EA019093EB0183ED78
:1015200091E00E945D03612F70E090E080E00E94F6
:10153000E70E6093C7017093C8018093C90190932F
:10154000CA0182EB91E00E945D0383ED91E00E946D
:10155000240382EB91E00E942403BB24B394A0E017
:10156000EA2EA0E0FA2EAA24A394BAE0CB2ED12C26
:101570008DE090E00E943904882309F4AAC08DE030
:1015800090E00E9439048B2590918C018913A1C0B1
:101590008DE090E00E94390480938C010091190243
:1015A00010911A020F5F1F4F10931A020093190235
:1015B00081E991E00E94240380918A0190918B013E
:1015C0000130110581F00230110509F0DDC1809173
:1015D0008E0190918F0190938B0180938A0180916D
:1015E00088019091890190938F0180938E0106303C
:1015F000110509F0DCC180918E0190918F019093CB
:10160000F5018093F4018091820190918301909380
:101610008F0180938E0160918A0170918B0177FF19
:1016200002C06F5F7F4F7595679590E080E00E94E4
:101630005808609188017091890177FF02C06F5F3F
:101640007F4F7595679581E090E00E945808609102
:1016500086017091870177FF02C06F5F7F4F75959C
:10166000679582E090E00E94580860918401709133
:10167000850177FF02C06F5F7F4F7595679583E0A7
:1016800090E00E9458086091F4017091F50177FF95
:1016900002C06F5F7F4F7595679584E090E00E9470
:1016A00058086091820185E090E00E94580860919E
:1016B000800186E090E00E94580860917E0187E0FA
:1016C00090E00E94580860917C0188E090E00E94C0
:1016D00058088DE090E00E943904811106C08DE029
:1016E00090E00E94390480938C018FE090E00E948A
:1016F00039048823C1F08FE090E00E9439048B25E3
:1017000090918D0189130FC08FE090E00E94390401
:1017100080938D0180918E0190918F01019690931D
:101720008F0180938E018FE090E00E943904811137
:1017300006C08FE090E00E94390480938D018EE016
:1017400090E00E9439048823C1F08EE090E00E946E
:1017500039048B259091900189130FC08EE090E0A1
:101760000E9439048093900180918E0190918F01A5
:10177000019790938F0180938E018EE090E00E94FC
:101780003904811106C08EE090E00E9439048093F4
:10179000900180911C02882309F43BC280911902B8
:1017A00090911A0267E371E0009709F4A5C10197CF
:1017B00061F460E081E991E00E94EE036CE371E086
:1017C000882309F499C10E94D5058091190290914E
:1017D0001A02029751F460E081E991E00E94EE0361
:1017E000882309F496C10E94D50580911902909131
:1017F0001A02039751F460E081E991E00E94EE0340
:10180000882309F495C10E94D50580911902909111
:101810001A02049751F460E081E991E00E94EE031E
:10182000882309F494C10E94D505809119029091F2
:101830001A02059751F460E081E991E00E94EE03FD
:10184000882309F493C10E94D505809119029091D3
:101850001A02069751F460E081E991E00E94EE03DC
:10186000882309F492C10E94D505809119029091B4
:101870001A02079751F460E081E991E00E94EE03BB
:10188000882309F491C10E94D50580911902909195
:101890001A02089751F460E081E991E00E94EE039A
:1018A000882309F490C10E94D50580911902909176
:1018B0001A02099751F460E081E991E00E94EE0379
:1018C000882309F48FC10E94D50580911902909157
:1018D0001A028A30910509F094C163E671E0CE01E5
:1018E00001960E943606CE0101960E944C06CE015A
:1018F00001960E9447068091190290911A0297FF63
:1019000004C0D0921A02C09219028DE090E00E94A9
:1019100039048823D9F08FE090E00E9439048823AD
:10192000A9F08EE090E00E943904882379F080913C
:101930001B0281110BC080911C028B2580931C021D
:10194000A0921B0210921A02109219028DE090E0F0
:101950000E943904811111C08FE090E00E94390487
:1019600081110BC08EE090E00E943904811105C006
:1019700080911B02811110921B02E114F10409F401
:10198000F7CD0E940000F4CD0330110501F58091E0
:101990008E0190918F0190938901809388018091AD
:1019A00086019091870190938F0180938E0107307B
:1019B000110501F580918E0190918F019093830123
:1019C00080938201809180019091810120CE04302A
:1019D0001105D9F580918E0190918F019093870127
:1019E00080938601809184019091850190938F016D
:1019F00080938E010830110509F056C060918E0168
:101A000070918F01709381016093800180917E01BC
:101A100090917F0190938F0180938E01072E000C8F
:101A2000880B990B0E94E70E6093E8017093E9011F
:101A30008093EA019093EB0183ED91E00E945D03B6
:101A400083ED91E00E942403E6CD0530110509F0F5
:101A5000CECD80918E0190918F01909385018093DE
:101A600084018091F4019091F50190938F0180930E
:101A70008E010A30110509F0CECD80918E01909132
:101A80008F0190937D0180937C0162E371E0CE0130
:101A900001960E943606CE0101960E944C06CE01A8
:101AA00001960E944706B7CD0930110511F76091E4
:101AB0008E0170918F0170937F0160937E01809100
:101AC0007C0190917D0190938F0180938E01072E70
:101AD000000C880B990B0E94E70E6093C70170936E
:101AE000C8018093C9019093CA0182EB91E00E94E2
:101AF0005D0382EB91E0A6CFCE0101960E943606EF
:101B0000CE0101960E944C06CE0101960E94470626
:101B10005CCE60E471E0CE0101960E943606CE01F3
:101B200001960E944C06CE0101960E9447065DCEAA
:101B300064E471E0CE0101960E943606CE01019662
:101B40000E944C06CE0101960E9447065ECE68E4D4
:101B500071E0CE0101960E943606CE0101960E94E8
:101B60004C06CE0101960E9447065FCE6CE471E000
:101B7000CE0101960E943606CE0101960E944C06C7
:101B8000CE0101960E94470660CE61E571E0CE016C
:101B900001960E943606CE0101960E944C06CE01A7
:101BA00001960E94470661CE65E571E0CE0101967F
:101BB0000E943606CE0101960E944C06CE01019687
:101BC0000E94470662CE69E571E0CE0101960E944F
:101BD0003606CE0101960E944C06CE0101960E9467
:101BE000470663CE6EE571E0CE0101960E9436068F
:101BF000CE0101960E944C06CE0101960E94470636
:101C000064CE0B970CF477CE10921A021092190240
:101C100072CE61E088EF91E00E94EE03882331F0FC
:101C20000E94DE040E949F040E9460048090F601DE
:101C30009090F7010091F4011091F5018016910642
:101C400094F40E941D05882371F00E945905882391
:101C500051F00E943605882331F061E08CE00E944B
:101C6000FA0060E014C060E08CE00E94FA00081501
:101C70001905BCF70E941D05882399F30E94590598
:101C8000882379F30E94360561E0882351F38BE0C5
:101C90000E94FA000E946E058823C1F081E00E9434
:101CA000F7060E946E0560E0882391F083ED91E0D5
:101CB0000E94EE03882309F428CE61E08AE00E94A6
:101CC000FA0082EB91E00E9424031FCE80E0E7CF70
:101CD00082EB91E00E94EE03882309F416CE60E0C7
:101CE0008AE00E94FA0083ED91E0EDCFCF93DF937D
:101CF00010926A0241E050E060E070E081E991E01A
:101D00000E945F031092FC011092FD011092FE01EF
:101D10001092FF0110920002109201021092020232
:101D20001092030210920402109205021092060211
:101D300010920702109209021092080210920A02F1
:101D400081E090E090930C0280930B0210921602B7
:101D500010921502C0916B02D0916C02C130D10576
:101D600011F090E080E090936C0280936B0280E031
:101D700090E0A0E8BEE380930D0290930E02A09342
:101D80000F02B093100288EF91E00E942403219784
:101D900021F088EF91E00E94FD0840918001509170
:101DA0008101052E000C660B770B83ED91E00E94FC
:101DB0005F0340917E0150917F01052E000C660B60
:101DC000770B82EB91E0DF91CF910C945F03E89465
:101DD00009C097FB3EF490958095709561957F4F73
:101DE0008F4F9F4F9923A9F0F92F96E9BB27939521
:101DF000F695879577956795B795F111F8CFFAF431
:101E0000BB0F11F460FF1BC06F5F7F4F8F4F9F4F61
:101E100016C0882311F096E911C0772321F09EE8BF
:101E2000872F762F05C0662371F096E8862F70E025
:101E300060E02AF09A95660F771F881FDAF7880FFF
:101E40009695879597F90895990F0008550FAA0B55
:101E5000E0E8FEEF16161706E807F907C0F01216BD
:101E60001306E407F50798F0621B730B840B950BC0
:101E700039F40A2661F0232B242B252B21F4089515
:101E80000A2609F4A140A6958FEF811D811D0895B2
:101E90000E945B0F0C94CC0F0E94BE0F38F00E9482
:101EA000C50F20F0952311F00C94B50F0C94BB0FC7
:101EB00011240C9400100E94DD0F70F3959FC1F364
:101EC000950F50E0551F629FF001729FBB27F00DE8
:101ED000B11D639FAA27F00DB11DAA1F649F66273D
:101EE000B00DA11D661F829F2227B00DA11D621F8C
:101EF000739FB00DA11D621F839FA00D611D221F46
:101F0000749F3327A00D611D231F849F600D211D29
:101F1000822F762F6A2F11249F5750409AF0F1F0AC
:101F200088234AF0EE0FFF1FBB1F661F771F881F15
:101F300091505040A9F79E3F510580F00C94B50F89
:101F40000C9400105F3FE4F3983ED4F386957795A8
:101F50006795B795F795E7959F5FC1F7FE2B880FBB
:101F6000911D9695879597F9089597F99F6780E851
:101F700070E060E008959FEF80EC089500240A94DB
:101F80001616170618060906089500240A94121654
:101F90001306140605060895092E0394000C11F487
:101FA000882352F0BB0F40F4BF2B11F460FF04C034
:101FB0006F5F7F4F8F4F9F4F089557FD9058440F8D
:101FC000551F59F05F3F71F04795880F97FB991F98
:101FD00061F09F3F79F08795089512161306140655
:101FE000551FF2CF4695F1DF08C0161617061806E2
:101FF000991FF1CF86957105610508940895E894BD
:10200000BB2766277727CB0197F90895F999FECF6B
:1020100092BD81BDF89A992780B50895262FF99928
:10202000FECF1FBA92BD81BD20BD0FB6F894FA9ABB
:10203000F99A0FBE019608952F923F924F925F92A8
:102040006F927F928F929F92AF92BF92CF92DF92C8
:10205000EF92FF920F931F93CF93DF93CDB7DEB72D
:10206000CA1BDB0B0FB6F894DEBF0FBECDBF0994C1
:102070002A88398848885F846E847D848C849B8418
:10208000AA84B984C884DF80EE80FD800C811B8126
:10209000AA81B981CE0FD11D0FB6F894DEBF0FBE55
:1020A000CDBFED0108950E9467100C94CC0F0E94E3
:1020B000C50F58F00E94BE0F40F029F45F3F29F091
:1020C0000C94B50F51110C9400100C94BB0F0E948E
:1020D000DD0F68F39923B1F3552391F3951B550B4D
:1020E000BB27AA2762177307840738F09F5F5F4FEB
:1020F000220F331F441FAA1FA9F335D00E2E3AF02A
:10210000E0E832D091505040E695001CCAF72BD041
:10211000FE2F29D0660F771F881FBB1F2617370792
:102120004807AB07B0E809F0BB0B802DBF01FF27C4
:1021300093585F4F3AF09E3F510578F00C94B50FDD
:102140000C9400105F3FE4F3983ED4F386957795A6
:102150006795B795F7959F5FC9F7880F911D96957D
:10216000879597F90895E1E0660F771F881FBB1FD9
:10217000621773078407BA0720F0621B730B840B86
:10218000BA0BEE1F88F7E09508950E94CC10689472
:10219000B1110C94001008950E94E50F88F09F572C
:1021A00098F0B92F9927B751B0F0E1F0660F771F7B
:1021B000881F991F1AF0BA95C9F714C0B13091F071
:1021C0000E94FF0FB1E008950C94FF0F672F782F46
:1021D0008827B85F39F0B93FCCF386957795679536
:1021E000B395D9F73EF490958095709561957F4FA2
:1021F0008F4F9F4F08950E94240F08F48FEF08958A
:10220000EE0FFF1F0590F491E02D09940F931F939B
:10221000CF93DF938230910510F482E090E0E0915B
:102220007302F091740230E020E0B0E0A0E030975B
:1022300099F42115310509F44AC0281B390B2430C3
:102240003105D8F58A819B816115710589F1FB0102
:1022500093838283FE0111C04081518102811381E9
:1022600048175907E0F04817590799F4109761F09B
:1022700012960C93129713961C933296CF01DF910E
:10228000CF911F910F9108950093730210937402E0
:10229000F4CF2115310551F04217530738F0A90149
:1022A000DB019A01BD01DF01F801C1CFEF01F9CFD8
:1022B0009093740280937302CDCFFE01E20FF31F5F
:1022C000819391932250310939832883D7CF20916C
:1022D000710230917202232B41F42091020130915E
:1022E000030130937202209371022091000130911A
:1022F00001012115310541F42DB73EB7409104018C
:1023000050910501241B350BE0917102F09172028E
:10231000E217F307A0F42E1B3F0B2817390778F0BC
:10232000AC014E5F5F4F2417350748F04E0F5F1F1B
:102330005093720240937102819391939FCFF0E08A
:10234000E0E09CCFCF93DF930097E9F0FC01329758
:1023500013821282A0917302B0917402ED0130E0F9
:1023600020E01097A1F420813181820F931F2091EA
:102370007102309172022817390709F061C0F09399
:102380007202E0937102DF91CF910895EA01CE17B6
:10239000DF07E8F54A815B819E0141155105B1F7E0
:1023A000E901FB83EA8349915991C40FD51FEC17CA
:1023B000FD0761F4808191810296840F951FE901E8
:1023C00099838883828193819B838A83F0E0E0E014
:1023D00012968D919C9113970097B9F52D913C9190
:1023E0001197CD010296820F931F209171023091B7
:1023F00072022817390739F6309751F51092740296
:1024000010927302B0937202A0937102BCCFD38377
:10241000C28340815181840F951FC817D90761F489
:102420004E5F5F4F88819981480F591F51834083C8
:102430008A819B81938382832115310509F0B0CF76
:10244000F0937402E09373029ECFFD01DC01C0CFD4
:1024500013821282D7CFB0E0A0E0E1E3F2E10C9466
:102460001E108C01009751F4CB010E9406118C01C3
:10247000C801CDB7DEB7E0E10C943A10FC01E60FDD
:10248000F71F9C0122503109E217F30708F49DC0A1
:10249000D901CD91DC911197C617D70798F0C530B7
:1024A000D10530F3CE0104978617970708F3C61BB2
:1024B000D70B2297C193D1936D937C93CF010E9448
:1024C000A211D6CF5B01AC1ABD0A4C018C0E9D1E29
:1024D000A0917302B0917402512C412CF12CE12C8B
:1024E000109731F5809171029091720288159905CB
:1024F00009F05CC04616570608F058C080910001EC
:1025000090910101009741F48DB79EB7409104016D
:1025100050910501841B950BE817F90708F055C089
:10252000F0937202E0937102F90171836083A0CF8E
:102530008D919C91119712966C90129713967C90A6
:102540001397A815B90559F56C0142E0C40ED11CCA
:10255000CA14DB0420F1AC014A195B09DA011296B6
:10256000159780F06282738251834083D9016D9305
:102570007C93E114F10471F0D7011396FC93EE9370
:10258000129776CF22968C0F9D1FF901918380833D
:10259000F301EFCFF0937402E093730269CF481612
:1025A000590608F42C017D01D3019ACFCB010E947A
:1025B00006117C01009749F0AE01B8010E94E812B3
:1025C000C8010E94A211870153CF10E000E050CF54
:1025D000FB01DC0102C001900D9241505040D8F740
:1025E0000895FB01DC0101900D920020E1F70895B0
:1025F000FB01DC014150504048F001900D92002059
:10260000C9F701C01D9241505040E0F70895AEE077
:10261000B0E0EDE0F3E10C942A100D891E8986E00C
:102620008C831A8309838FEF9FE79E838D83AE018E
:10263000475E5F4F6F89788DCE0101960E942A1305
:102640002F813885020F131FF80110822E96E4E0C7
:102650000C944610ABE0B0E0E0E3F3E10C941C1006
:102660007C013B018A01FC0117821682838181FF74
:10267000C8C1CE0101965C01F7019381F30193FD7E
:10268000859193FF81913F01882309F453C18532DD
:1026900039F493FD859193FF81913F01853229F4AF
:1026A000B70190E00E941A15E7CF912C212C312C14
:1026B000FFE1F31538F08B3211F190F4803209F11B
:1026C000833229F137FC3CC020ED280F2A3050F529
:1026D00036FE20C08AE0989E200D1124922E06C05E
:1026E0008D3291F0803371F7689430F8F30193FDE7
:1026F000859193FF81913F018111DACF21C06894C8
:1027000031F8689432F8F2CF689433F8EFCF6894D8
:1027100034F8ECCFEAE02E9E200D1124222E68948E
:1027200035F8E4CF8E3229F436FC04C1689436F8CB
:10273000DDCF8C3619F4689437F8D8CF8836B1F2EB
:10274000982F9F7D95549330E0F08336A1F1833725
:10275000C1F1833509F063C02801F2E04F0E511C2E
:10276000F801C080D180692D70E036FC02C06FEFA7
:102770007FEFC6010E9404154C01689437F882016E
:102780000AC00C5F1F4FFFE3F98388248394912CC8
:102790006501E89437F833FE2DC0522C8114910462
:1027A00071F5552009F468CFB70180E290E00E94EE
:1027B0001A155A94F6CFF801808189830E5F1F4F56
:1027C000E4CF2801F2E04F0E511CF801C080D18007
:1027D000692D70E036FC02C06FEF7FEFC6010E94EA
:1027E0000F154C018201D5CFB70180E290E00E9425
:1027F0001A152A942814190409F0B0F7CECFF6015F
:1028000037FC859137FE81916F01B70190E00E94FE
:102810001A1551105A94F1E08F1A9108BFCF8436DF
:1028200019F0893609F077C0F80137FE6BC0608176
:102830007181828193810C5F1F4FF32DFF763F2EB4
:1028400097FF09C090958095709561957F4F8F4F48
:102850009F4F689437F82AE030E0A5010E944A159E
:10286000C82ECA188C2C432C36FE0CC0E89440F8B5
:10287000C91440F434FE05C032FC03C0F32DFE7EC3
:102880004F2E892C44FE95C0FE01EC0DF11D808178
:10289000803309F087C0242D297E422E842D887034
:1028A000582E43FC95C040FE8FC09C2C821418F417
:1028B0002C0C922C981844FE91C0B70180E390E054
:1028C0000E941A1542FE09C088E790E041FE02C04E
:1028D00088E590E0B7010E941A15C91408F48AC06F
:1028E000CA94D12C9FEFC91AD90ACA0CDB1CF60175
:1028F00082916F01B70190E00E941A15AC14BD04DB
:10290000B1F74FCF60817181072E000C880B990BB6
:102910000E5F1F4F92CFD32CE894D4F82AE030E01A
:10292000853739F1232D297FD22E8F3601F148F4D6
:102930008835A9F0F701868197812B96E2E10C9406
:102940003810803749F08837A9F7D4FE02C0689460
:10295000D2F820E130E00DC06894D4F8F6CF34FE10
:1029600003C0822F8660D82E20E132E002C028E02A
:1029700030E0F801D7FE0FC06081718182819381C0
:102980000C5F1F4FA5010E944A15C82ECA183D2C86
:10299000E89437F867CF6081718190E080E00E5F46
:1029A0001F4FF0CF42FC02C0839478CF839483946E
:1029B00075CF842D867809F471CFF6CFB70180E208
:1029C00090E00E941A1583948214C0F3512C73CFA7
:1029D000522C5818821408F46ECFF8CF842D8678C4
:1029E00009F47BCF8BE241FE80E247FC8DE2B70128
:1029F00090E071CFB70180E390E00E941A159A949D
:102A00006CCF8FEF9FEF99CFFC0105906150704024
:102A10000110D8F7809590958E0F9F1F0895FC01A7
:102A20006150704001900110D8F7809590958E0FFD
:102A30009F1F08950F931F93CF93DF93182F092F94
:102A4000EB018B8181FD09C01FEF0FEF812F902FCC
:102A5000DF91CF911F910F91089582FF14C02E81B5
:102A60003F818C819D81281739073CF4E881F981E9
:102A7000CF0101969983888310838E819F8101966F
:102A80009F838E83E3CFE885F985812F0995892B74
:102A9000A1F3DACFFA01AA27283051F1203181F1D0
:102AA000E8946F936E7F6E5F7F4F8F4F9F4FAF4F56
:102AB000B1E03ED0B4E03CD0670F781F891F9A1F69
:102AC000A11D680F791F8A1F911DA11D6A0F711D1D
:102AD000811D911DA11D20D009F468943F912AE029
:102AE000269F11243019305D3193DEF6CF01089511
:102AF000462F4770405D4193B3E00FD0C9F7F6CF42
:102B0000462F4F70405D4A3318F0495D31FD405209
:102B1000419302D0A9F7EACFB4E0A695979587959F
:102B200077956795BA95C9F700976105710508957E
:102B30009B01AC010A2E069457954795379527952A
:102B4000BA95C9F7620F731F841F951FA01D0895C2
:102B5000F894FFCF000075028000253464004572B0
:102B6000414C004572496E0045724F740045724FEA
:102B70004C00496E5075004F757475004C6F416480
:102B8000004672457100536175640053455450000E
:102B900049487500494C75004F4875004F4C750009
:102BA00053455475004F754C00744F6E00744F467A
:0C2BB00046006449464600456E64000083
:00000001FF
